:1000000000800020BD0100001D150000E11400006B
:10001000E1140000E1140000E1140000E11400000C
:10002000E1140000E1140000E11400001D150000BF
:100030001D150000E11400001D150000D114000082
:100040001D1500001D1500001D1500001D150000E8
:100050001D1500001D1500001D1500001D150000D8
:100060001D1500001D1500001D1500001D150000C8
:100070001D1500001D1500001D1500001D150000B8
:100080001D1500001D1500001D1500001D150000A8
:100090001D1500001D1500001D1500001D15000098
:1000A0001D1500001D1500001D1500001D15000088
:1000B0001D1500001D1500001D1500001D15000078
:1000C0001D1500001D1500001D1500001D15000068
:1000D0001D1500001D1500001D1500001D15000058
:1000E0001D1500001D1500001D1500001D15000048
:1000F0001D1500007D1B00001D150000E122000001
:100100001D1500005D2800001D1500001D150000D4
:100110001D1500001D1500001D1500001D15000017
:100120001D1500001D1500001D1500001D15000007
:100130001D1500001D1500001D1500001D150000F7
:100140001D1500001D1500001D1500001D150000E7
:100150001D1500001D1500001D1500001D150000D7
:100160001D150000890800001D1500001D15000068
:100170001D1500001D1500001D1500001D150000B7
:100180001D1500001D1500001D1500001D150000A7
:100190001D1500001D1500001D1500001D15000097
:1001A0001D1500001D1500001D1500001D15000087
:1001B0001D1500001D1500001D150000574B4CF2C9
:1001C000205210B51A804DF628121A8000BF00BFC9
:1001D00001F0A8F9524B4FF010621A60514A9A6030
:1001E000514ADA60A3F53043203B1A6812F480725A
:1001F00004D14E490A604FF4A8521A604C4B1A7849
:10020000110703D51A7842F008021A70494B4A4C7C
:100210004A482A221A704A4A00239918A14203D256
:10022000195899500433F8E7464B474900228B424E
:1002300002D243F8042BFAE74448454900235A58B0
:100240001A500433B3F5DE7FF9D1424B424A802184
:1002500003F8011B9342FBD1404B3C4A1A60404BD0
:100260008A221A70A3F5805324225A70A0221A7091
:100270009A799207FCD59A79D406FCD4394A9379B5
:1002800003F00C03082B374BF9D103221A714022DB
:100290005A719A799006FCD5324A9179314B4906C8
:1002A000FBD5314A314911600221516020221A7078
:1002B0009A7902F00C020C2AFAD12D4B2D4A1A60C1
:1002C0002D4B4BF67F321A6000225A60072243F80A
:1002D000042C2A4AC3F80C2D62B600F095F9134B92
:1002E0001B68DA0705D5264800F0D2F8254B264AC8
:1002F0001A60264B1B785B0609D5224C224A2368DC
:10030000934204D11E4800F0C3F80023236002F09A
:1003100091FD01F00DF901F027F8FEE70E200540F0
:1003200030800440823F04000100002B14D00340C1
:1003300002D0074000E00740908CFF1FE832000029
:100340006087FF1F908CFF1F7C8FFF1F0082FF1FA5
:100350000000000000E400E05FE400E008ED00E0E1
:100360000050064000400640448004400000131145
:1003700004800440C010050014E000E000002020CC
:10038000C09621581CE00340A5C3945A00F00740D2
:10039000FFFFFFFFFFFFFFFFFFFFFFFFFFFFFFFF6D
:1003A000FFFFFFFFFFFFFFFFFFFFFFFFFFFFFFFF5D
:1003B000FFFFFFFFFFFFFFFFFFFFFFFFFFFFFFFF4D
:1003C000FFFFFFFFFFFFFFFFFFFFFFFFFFFFFFFF3D
:1003D000FFFFFFFFFFFFFFFFFFFFFFFFFFFFFFFF2D
:1003E000FFFFFFFFFFFFFFFFFFFFFFFFFFFFFFFF1D
:1003F000FFFFFFFFFFFFFFFFFFFFFFFFFFFFFFFF0D
:10040000FFFFFFFFFFFFFFFFFFFFFFFFDEF9FFFF23
:1004100010B5054C237833B9044B13B10448AFF33E
:1004200000800123237010BD908CFF1F000000008E
:10043000E832000008B5064B1BB106480649AFF389
:1004400000800648036813B1054B03B1984708BD07
:1004500000000000E8320000948CFF1F908CFF1F0A
:100460000000000008B50D20012100F045F808BD8E
:1004700008B50D20012100F01BF8642000F0AEF853
:100480000D20002100F014F8642000F0A7F808BD4A
:10049000044B00221A6004490A60044A10601022CA
:1004A0001A60704714D0034004D0034000D00340CA
:1004B00021281ED80F4B53F8303093F8802212F0C9
:1004C000FF0F08D019B1012283F880207047012264
:1004D00083F800217047074B03EBC000436821B14C
:1004E0001A6842F003021A6070471A6822F002028A
:1004F0001A607047DC2F000021284AD8254B03EBF7
:10050000C0035B68012911D004291DD0214A52F88B
:100510003020002082F8800200292FD0022931D01B
:1005200003291FD040F203121A607047194A52F88B
:100530003020012182F880124FF4A2721A601A68EA
:1005400022F020021A607047124A52F8302001212E
:1005500082F880124FF4A2721A601A6842F02002E8
:100560001A6070474FF480721A601A6842F00202F3
:100570001A601A6822F001021A6070474FF4807204
:100580001A6070474FF480721A601A6842F00302D2
:100590001A607047DC2F000072B60C4B1B680C4AC7
:1005A00012680C49096862B611F0806F02D0322BD4
:1005B00088BF0132C3F53B437F330749A1FB0303E7
:1005C0005B094FF47A7000FB0230704718E000E0DE
:1005D000AC8CFF1F04ED00E0ABAAAAAA38B5054613
:1005E000FFF7DAFF044625B938BD013D0AD004F50E
:1005F0007A74FFF7D1FF001BB0F57A7FF5D200F0D7
:10060000BBFEF6E738BD00BF10B5264B4FF4000225
:100610001A604FF080721A604FF000721A604FF04B
:1006200080621A604FF000621A6000201E4B186052
:100630004BF6FF710433196028231C4A13600832FB
:1006400013600832136008321360083213600832F6
:10065000136008321360083213600922144C2260C0
:1006600004F5805404342060043421600434236091
:1006700008342360143C226004F5FE240434206016
:100680000C4801600C490B6008310B600B4B1A6081
:1006900000F094FE4FF4C870FFF7A0FF00F064FC78
:1006A00010BD00BF08E100E0048003400C8003405F
:1006B0000080034008800B400C800B4000800B4002
:1006C00030B40E4B1B7843F002020D4C04EBC20415
:1006D00060600C48007800280CBF8824C82444EAD5
:1006E0000141074D45F8321080F00100054A1070B5
:1006F00083F00103014A137030BC7047188DFF1F4F
:100700000080FF1F918DFF1F10B4431E032B11D8D3
:1007100072B60A4A52F8230050B14268074941F8BC
:100720002320074A32F813400188611A22F8131077
:1007300062B600E000205DF8044B7047088DFF1F93
:10074000748FFF1F013803280DD872B6074B53F87A
:1007500020302BB1002001305B68002BFBD100E082
:10076000002062B670470020704700BF5C8DFF1FFD
:1007700038B572B601231B491B4C5A1812F8012CCC
:1007800012F0080F24D09A0054F832506DB9164B6D
:1007900003EBC20108304860144943F83210144B8F
:1007A0001A78013A1A7062B638BD42F0010254F864
:1007B00032506DB90C4B03EBC201083048600D4953
:1007C00043F832100A4B1A78013A1A7062B638BDF3
:1007D0000133052BD1D162B60022054B1A7000F00F
:1007E00027FC38BDEC3000000080FF1F880040006F
:1007F000868DFF1FC800400010B4431E032B37D85E
:10080000400140F010001C4A104472B61B4AD25CF2
:10081000032A09D8DFE802F019021B05083002227A
:1008200016E00830042213E0154A52F823201AB9C2
:10083000134A42F8231003E0124A52F82320516071
:10084000104A42F8231062B612E0032200E00522AB
:100850000A4CE25401F10803436000F00803002B46
:100860000CBF8823C8230A8843EA0243036062B6A8
:100870005DF8044B704700BF0080FF1FC48CFF1F52
:100880005C8DFF1F6C8DFF1F2DE9F84FA84CDFF822
:10089000F092DFF8F0A2DFF8F0B22578EDB215F0B3
:1008A000040F1DD0A34B1B7813F0FF0F16D0A24BE3
:1008B0001B7803F0FF022BB1531EDBB29E4A13706C
:1008C00003B900BE9D4B1B7803F0FF0233B1531EEA
:1008D000DBB29A4A13700BB900F028FD0423237091
:1008E00015F0080F00F0D48299F80030DBB21D0932
:1008F00040F01582924D9E0805EBC6035A6855F8E4
:100900003630C3F38303013B0C2B00F20482DFE893
:1009100013F0BB01BB010202020202020202020248
:100920000202DC010202020202020D008549136884
:100930000B6052684A60844A45F836200022834999
:100940000A607F490A618A610121814A11709BB264
:1009500040F28162934218D8B3F5D06F29D2B3F533
:10096000817F00F0178106D8802B00F0C380822B96
:1009700000F0C68056E140F20232934200F01F813F
:10098000B3F5A06F00F052814CE1B3F5106F16D0B3
:1009900004D8B3F5086F00F0A78043E140F62112B8
:1009A000934200F06D8140F62122934200F03E8197
:1009B00038E1684B5D68002D40F016812EE1614BF7
:1009C0009A785C4B1A705E4D05F180062B6A13F025
:1009D000800F03D0686A083800F02AFB0835B5425A
:1009E000F4D1DFF8A881002637465B4AB05828B119
:1009F000456800F01DFB0DB12846F9E70023564974
:100A00007350564AB350564BF05828B1456800F021
:100A10000FFB0DB12846F9E7002351497350514AA5
:100A2000B35028F8023F504BFB5C023B032B0AD823
:100A3000DFE803F00206020600224B4BDA5502E023
:100A40000122494BDA5501370436102ECDD1002250
:100A5000464B1A700125464FDFF83481384E05EBBE
:100A6000080313F8013C07F8043B13F0080F2DD0DE
:100A700000F0BEFA48B1A90006EB451200F10803E8
:100A800053603C4A46F8312007E0AB00002246F8AC
:100A90003320364B1A7801321A7000F0A9FA58B197
:100AA000AB0043F0010306EBC30100F108024A600A
:100AB000254A46F8332009E0AB0043F00103002249
:100AC00046F83320294B1A7801321A70AA0042F0F6
:100AD0000201002346F8313042F0030246F832307A
:100AE00001355F45BBD114E2124B1B78224D2B70B0
:100AF0000127A0E0204D00232B706B7002279AE0A5
:100B0000104B9B88042B03D90F221C4B1A70B7E0A3
:100B1000194A002111705170184A12F8233013F04D
:100B2000020F00F08680144D01232B70022782E013
:100B300080200740908DFF1F198DFF1FA08DFF1F84
:100B40000080FF1F7C8DFF1FC8004000B08CFF1F7E
:100B5000918DFF1FF0300000088DFF1FB48CFF1F28
:100B60005C8DFF1F6C8DFF1FC48CFF1F868DFF1FC8
:100B7000C420074088004000888DFF1FC020074028
:100B80009020074094200740D4200740728FFF1F19
:100B9000EC300000964B9B8803F07F03042B02DCB3
:100BA000934A52881AB10F22924B1A7068E0914A08
:100BB00012F8231021F0020102F82310A9E18C4B56
:100BC0009B8803F07F03042B02DC894A52881AB108
:100BD0000F22884B1A7053E0864A12F8231041F016
:100BE000020102F8231094E1814B5E889F88824BBA
:100BF000A3F10C02114633F80C0CB04209D133F8C2
:100C00000A0CB84205D1360A032E0CBF2F7817897B
:100C100011E00D690C330C32002DEBD10F22754B16
:100C20001A702DE00F22734B1A7029E000273D4601
:100C300001E00227714D6E4BDB889F4228BF1F46A3
:100C4000402F34BF3E46402628463146FFF738FD48
:100C50003544BF1B03D13F2E00F2608110E0402FCE
:100C600034BF3E46402628463146FFF729FD35442D
:100C7000BF1B01D13F2E03D9614B1D60614B1F800B
:100C800001238AF8003046E0594B19685E4B9942BF
:100C900017D1574B59685D4B994212D11378A92B44
:100CA0000FD15378452B0CD19378C22B09D1D3782F
:100CB0006B2B06D10522564B1A7000200146FFF718
:100CC000FFFC544B45F8363025E04D4B1E68BEB155
:100CD0004C4FB7F80080B8F1400F34BF454640256F
:100CE00030462946FFF7ECFCC5EB08039BB23B807E
:100CF0000BB9402D01D1354400E00025404B1D606B
:100D00003B4B1B88B3F5A06F05D1394B00225A70BD
:100D10009B7841490B7001238AF80030B5E03F4EC3
:100D20009F0806EBC708D8F80420A2F10800013D8F
:100D3000EDB213F0080F47D000F07AF9384B53F8B2
:100D400025304BB35A68364941F8252003F1080293
:100D5000C8F80420334A525D032A12D8DFE802F0B3
:100D600002060A0E03212F4A51550AE002212D4A9C
:100D7000515506E005212B4A515502E00421294A2C
:100D8000515518F0080F0CBF8822C8221B8842EA70
:100D9000034346F8373078E0224B5B5D032B0BD8DA
:100DA000DFE803F07373020600221E4B5A556CE015
:100DB00001221C4B5A5568E018F0080F0CBF0222A4
:100DC0000322184B5A5560E056F837301B0C22F8B6
:100DD000083C002B51D0002322F8063C42F8043C8A
:100DE000114B53F825300BBB0F4B43F8250021E086
:100DF0007C8DFF1FC0200740FC300000888DFF1F46
:100E0000B08CFF1F848DFF1F210900030100040027
:100E1000198DFF1FC8004000982007400080FF1F69
:100E20005C8DFF1FC48CFF1F088DFF1F3F4B53F8C5
:100E3000253058603D4B43F825003D4B33F81510E5
:100E400032F8082C0A4423F8152000F0D1F860B1DC
:100E500000F10803C8F8043018F0080F354B364A83
:100E600008BF134646F837300FE0002346F8373006
:100E7000324B1A7801321A7007E018F0080F2D4B28
:100E80002D4A08BF134646F837300823237004E57F
:100E900015F0010F22D02A4902230B700022294BA2
:100EA0001A70294B24481860284C5C6098602848C8
:100EB000D8601A619A610D20264B1870FF232648CE
:100EC00003700838037018300270244A13709F2290
:100ED000234B1A7001230B70BDE8F88F15F0800FBB
:100EE00005D00D221B4B1A708022403B1A7015F062
:100EF000020F06D0184B1A78D2B21A700222083BA1
:100F00001A7015F0100F0ED01022164B1A70BDE893
:100F1000F88F00200146FFF7D3FBB1E628460021F9
:100F2000FFF7CEFBACE6BDE8F88F00BFB48CFF1F27
:100F3000748FFF1FC800400088004000868DFF1F8F
:100F400094200740188DFF1F0080FF1FC88CFF1FD3
:100F50001C8DFF1FC0200740882007408C200740C1
:100F6000842007408020074008B501F0EBFC0023F7
:100F70001B491A465A50C81842600833882BF9D1C9
:100F8000184B1A6842F480221A60154BC3F30721EC
:100F9000154A1170C3F30741143211701B0E04324D
:100FA0001370FF23343A137008321370783A1370B9
:100FB00001238432137000216C3211707C3A13705B
:100FC00070220A4B1A704FF40072A3F241331A6078
:100FD000102203F1C04303F5C8231A7008BD00BFF7
:100FE0000080FF1F348004409C20074049E400E05B
:100FF00072B60D4B1A68B2FA82F30B2B02D962B6A5
:10100000002070474FF00041D94022EA0102064912
:101010000A6062B6054903EBC303DB00C81800226F
:10102000CA504260704700BF6087FF1F0084FF1FE7
:1010300008B50F4BC31A0F4AA2FB03131B090B2B56
:1010400014D80D4A12783AB10C4A127812F0FF0FF8
:1010500002D0FFF78DFB08BD72B6094A4FF0004180
:1010600021FA03F311681943116062B608BD00BF8D
:101070000084FF1F398EE338868DFF1F908DFF1F80
:101080006087FF1FF8B5194B1B7813F0FF0F24D0B2
:10109000174C0227154E206820B93846FFF734FB5D
:1010A0002060E8B14388C218157A6DB10133028817
:1010B000934206D3FFF7BCFF00220D4B1A6028466F
:1010C000F8BD43802846F8BDFFF7B2FF0023236038
:1010D000337813F0FF0FDED105E04FF0FF30F8BD9D
:1010E0004FF0FF30F8BD4FF0FF30F8BD908DFF1F7F
:1010F0009C8DFF1F70B5134B1B7813F0FF0F16D09C
:10110000114C02260F4D206820B93046FFF7FCFA3B
:10111000206078B1438803441B7A73B9FFF788FFD6
:10112000002323602B7813F0FF0FECD107E04FF082
:10113000FF3070BD4FF0FF3070BD184670BD4FF0EE
:10114000FF3070BD908DFF1F9C8DFF1F38B5194B70
:101150001B6853B9184B1B7813F0FF0F24D00220E3
:10116000FFF7D2FA134B186000B3124B18680588CA
:1011700043889D4212DDC218127A7AB103F1080247
:101180000244ED1A012303E012F8011F013319B1E3
:101190001C46AB42F8D100E023464BB9FFF748FFAD
:1011A0000020044B186038BD002038BD002038BD39
:1011B000204638BD9C8DFF1F908DFF1F2DE9F04705
:1011C000044601223B4B1A700F4600296DD0DFF810
:1011D000F090DFF8F0A01E46DFF8DC80D9F8003090
:1011E000A3BB9AF8003013F0FF0F06D10022314B59
:1011F0001A704FF0FF30BDE8F08743F22925012037
:10120000FFF7A0FA052806D801233370FFF7F0FE98
:10121000C9F80000D0B9013D02D098F800304BB1B8
:101220000122254B1A700022224B1A704FF0FF301A
:10123000BDE8F0870023337000F09EF8012333707F
:101240009AF8003013F0FF0FD9D1CFE7002388F8C8
:101250000030D9F800104A88C2F14005AF4238BFCB
:101260003D4602F108030B442A444A807F1B3DB1EE
:10127000254414F8012B03F8012BAC42F9D100E00E
:1012800025464B883F2B03D805220C4B1A7009E0EA
:1012900040230B800024094B1C700120FFF7ACFA9F
:1012A000C9F800400FB12C4698E70020014B187098
:1012B000BDE8F087928DFF1F988DFF1FA08DFF1F47
:1012C000948DFF1F908DFF1F00B583B002AB03F814
:1012D000010D18460121FFF771FF03B05DF804FB13
:1012E00008B50F4B1B7813F0FF0F17D00D4B196883
:1012F000A1B14A8892B100200B4B187013463F2AC7
:1013000004DCCA1810720133402BFAD140230B8041
:101310000120FFF771FA0022024B1A6008BD00BFDE
:10132000908DFF1F948DFF1FA08DFF1F08B50C4BE4
:101330001B7813F0FF0F12D10A4B19684B883F2B13
:1013400005DC0020CA1810720133402BFAD140236B
:101350000B800120FFF750FA0022024B1A6008BDF3
:10136000928DFF1F948DFF1F08B5FFF77BF8FFF7E5
:101370007FF800F001F8FAE708B50F4B1B78CBB9FE
:1013800001220D4B1A70FFF7E1FE08B101F020FDBC
:1013900000F06AFB08B101F0ABFB00F017FF08B1E9
:1013A00001F048FC01F0E4F908B101F0E5FC00228D
:1013B000014B1A7008BD00BFA18DFF1F60223A4B80
:1013C0001A70E12201331A70384B1B78082B10D1A8
:1013D000012203F1804303F56C331A60132334496F
:1013E0000B6001F5FF2101F2FC710A60314A1360C4
:1013F0001FE00A2B0DD139222F4B1A6013232C49E1
:101400000B6001F5FF2101F2FC710A60294A1360AB
:101410000FE00C2B0CBF35223D22274B1A60122304
:1014200023490B6001F5FF2101F2FC710A60214A9A
:101430001360224B1B7833B10123214A136002F55C
:101440000022136005E000231D4A136002F500220C
:1014500013601C4B1B78012B06D880231A4A13609B
:1014600002F5002213601AE0042B06D88423164AE2
:10147000136002F50022136011E0082B06D88523C3
:10148000114A136002F50022136008E0102B94BF8C
:10149000862387230C4A136002F500221360012281
:1014A0000A4B1A70704700BF004007406487FF1F57
:1014B0000CB003400CB00B4008B00340A38DFF1FDD
:1014C00020B003406587FF1F24B00340A28DFF1F9B
:1014D000024B1A6801321A60704700BFAC8CFF1FC4
:1014E00008B50D4C236813F4802F01D0FFF7CCF919
:1014F000236813F4806F01D000F040FB236813F4DD
:10150000006F01D000F0ECFE236813F4805FE9D097
:1015100001F0A4F9E6E700BF3480044008B5FFF706
:10152000DFFF00BF1022014B1A80704700200540EA
:10153000704700BFEFF31383ABB9EFF31083ABB980
:10154000EFF3058323B10F2B05D9094A985C03E01B
:101550004FF4807000E00020EFF311833BB1834231
:1015600038BF184670474FF0FF3070470020704773
:10157000F0E300E0254B1A6842F480621A60002311
:10158000234A1370234A1370234A1370234A13709B
:10159000234A1370234B1B7813B1152B05D008E099
:1015A00040F21332204B1A6003E040F213321F4B1B
:1015B0001A601F4B1B78012B02D0052B05D008E0C9
:1015C0004FF451721B4B1A6003E04FF451721A4BE7
:1015D0001A60C0F34432194B1A70C0F347125A70A4
:1015E00000F01F00987204229A700221D9745A7573
:1015F00088221A743C22DA704022114B1A704FF480
:101600000052A3F229331A60704700BF34800440AF
:10161000308EFF1FA98DFF1F388EFF1F318EFF1FD9
:10162000A88DFF1FEC8DFF1F40A0044018C0044090
:101630006687FF1F44A004401CC0044000A0064071
:101640002DE400E0164B9B7803F0EC0300F003025E
:10165000134310F0040F18BF43F01003104A9370A7
:1016600000F00F03042B04D11346927942F040029C
:101670009A710B4B5A7902F0EF0210F0100F18BF5D
:1016800042F01002064B5A719B7903F0EF0310F001
:10169000200F18BF43F01003014A9371704700BF39
:1016A00000A0064010B5144B1B6813F4806F21D0C6
:1016B000124B1B7813F0FF0F06D0104CFFF75CFEA7
:1016C000237813F0FF0FF9D14FF400520C4B1A603E
:1016D00000230C4AD37040F203120B490A60043114
:1016E0000A600A4A13700A4A13700A4B1B680BB14E
:1016F00001221A7010BD00BF34800440A88DFF1F66
:1017000084E100E000A0064040A00440308EFF1FAE
:10171000A98DFF1FA48DFF1F10B50446094A137839
:1017200013F0FF0FFBD120460121FEF7E5FE204616
:101730000021FEF7BDFE044B53F83420034B1A6022
:1017400010BD00BFA88DFF1FDC2F0000348EFF1FCF
:1017500010B40C4609B140F08000184B1B78984239
:1017600028D0174A126812F4806F21D003F07F034B
:10177000012B02D0052B04D006E00022114B1A6089
:1017800002E00022104B1A60002C0CBF44226022A1
:1017900000F07F03012B02D0052B05D008E042F4B6
:1017A0004072084B1A6003E042F44072064B1A6024
:1017B000024B18705DF8044B704700BF6687FF1F2F
:1017C0003480044044A004401CC00440114B1B78EA
:1017D00098421ED0104A126812F4806F17D013B1CD
:1017E000152B04D006E000220C4B1A6002E0002208
:1017F0000B4B1A6010B1152805D008E040F21332E7
:10180000064B1A6003E040F21332054B1A60014B9D
:1018100018707047EC8DFF1F3480044040A00440D6
:1018200018C0044010B50D4B1B6813F4806F12D024
:1018300021280CD80A4C0B4B53F83030236001217F
:10184000FEF75AFE236800221A70012010BD002006
:10185000034B186010BD002010BD00BF3480044051
:10186000A48DFF1FDC2F0000114B1B6813F4806F49
:101870001BD0122804D140F202320E4B1A600DE048
:10188000142804D140F202320B4B1A6006E00B4BD5
:101890005A7B02F0FE025A7300207047074B5A7BB6
:1018A00042F001025A73012070470020704700BFC8
:1018B000348004400CA0044014C0044000A0064042
:1018C0002DE9F04107461F4B1B6813F4806F37D09A
:1018D0001D4B1B680BB101221A701C4B1C78013484
:1018E000402C28BF00241A4D1A4EDFF86C8017E0F8
:1018F000FFF720FE40280FDC337913F0800F0FD064
:101900002B780133402B28BF002318F80320D2B2D4
:10191000F271DBB22B7003E0FF2801DDFFF72CFD35
:101920002B78DBB29C42E3D0FFB20B4B1F55012258
:101930000A4B1A70E4B2054B1C70BC22054BDA70DE
:10194000BDE8F08134800440348EFF1F388EFF1FC5
:10195000318EFF1F00A00640AC8DFF1FA88DFF1F1A
:101960002DE9F84F0746284B1B6813F4806F49D0C8
:10197000264B1B680BB101221A7007EB010B5F4568
:101980003DD2DFF89890224EDFF88C80DFF890A0EF
:1019900099F800400134402C28BF00243578EDB27E
:1019A000A54220D1BC2388F80330FFF7C3FD4028AF
:1019B00011DC98F8043013F0800F10D03378013325
:1019C000402B28BF00231AF80320D2B288F8072042
:1019D000DBB2337003E0FF2801DDFFF7CDFC337885
:1019E000DBB29D42E1D017F8013B0AF80430012236
:1019F000084B1A70E4B289F800405F45C8D1BC2298
:101A0000054BDA70BDE8F88F34800440348EFF1F38
:101A1000318EFF1FA88DFF1F00A00640388EFF1FCC
:101A2000AC8DFF1F10B5064B1B7813F0FF0F06D0CF
:101A3000034CFFF7A1FC237813F0FF0FF9D110BD81
:101A4000A88DFF1F064B1B78DBB2064A1278D2B274
:101A500093422CBF3F3202F1FF32D01A704700BFD1
:101A6000388EFF1F318EFF1F054B1878C0B2054B13
:101A70001B78DBB2984238BF4030C01A704700BFB5
:101A8000308EFF1FA98DFF1F10B4184B1A78D2B2E9
:101A9000174B1B78DBB29A4218D001333F2B18D872
:101AA0001449C85CC0B2DCB211490C701249096813
:101AB000C9B19A4203D300E00023D31A01E04032B7
:101AC000D31A1A2B0FDC00230B700CE04FF0FF3001
:101AD00009E0084B1878C0B20021054B1970064B7D
:101AE00019680029E8D15DF8044B7047308EFF1F5C
:101AF000A98DFF1FF08DFF1FA48DFF1F094B1A78C2
:101B0000D2B2094B1B78DBB29A4207D00133402B8B
:101B100028BF0023054AD05CC0B270474FF0FF30A9
:101B2000704700BF308EFF1FA98DFF1FF08DFF1F74
:101B30000D4B1B6813F4806F14D00C4BDA7802F055
:101B4000CB02DA7040225A74DA7842F03402DA704A
:101B5000074B1A78D2B2074B1A70074B1B680BB1B0
:101B600000221A70704700BF3480044000A0064075
:101B7000A98DFF1F308EFF1FA48DFF1F70B43D4B3A
:101B80001B7913F0300F33D072B63A4B9B7D03F0C4
:101B9000FF022BB9374BDA7940225A7462B627E03C
:101BA00062B6354B1978C9B2344B1C78E4B2314D6A
:101BB000334EEB79D8B24B1C402B28BF0023A342F5
:101BC0001CBFF0541946531E13F0FF02F1D1CAB2E4
:101BD000294B1A702B4B1B6853B1A1422EBFC4EB8B
:101BE0000101C4F1400409192729C4BF01221A7058
:101BF000204BDA78D2B212F0800F27D01B7913F085
:101C0000800F23D0204B1C78E4B2204B1B78DBB232
:101C10009C4210D017491E4D01E0A3420BD0013366
:101C2000402B28BF00230879E85CC0B2C871087D4A
:101C3000C0B20728F1D9DBB214490B700D4B1B79E8
:101C400013F0800F02D07C210A4BD97012F0400FA4
:101C50000ED0084B1B7913F0400F09D000220D4B1A
:101C60001A700D4B1B6803B11A703C22014BDA70DD
:101C700070BC704700A00640308EFF1FA98DFF1F6B
:101C8000F08DFF1FA48DFF1F388EFF1F318EFF1FA9
:101C9000AC8DFF1FA88DFF1F348EFF1F254B1A68C8
:101CA00042F400621A600023234A1370234A13701F
:101CB000234A1370234A1370234A1370234B1B7853
:101CC000092B02D01A2B05D008E040F21332204B2A
:101CD0001A6003E040F213321E4B1A601E4B1B7851
:101CE0000A2B02D01F2B05D008E04FF451721B4B7A
:101CF0001A6003E04FF45172194B1A60C0F344327A
:101D0000184B1A70C0F347125A7000F01F009872F7
:101D100004229A700221D9745A7588221A743C22BE
:101D2000DA704022104B1A704FF40042A3F22B33AA
:101D30001A60704734800440AC8EFF1F418EFF1F35
:101D4000B48EFF1FAD8EFF1F408EFF1F6787FF1FE2
:101D50000CB0044004D004406887FF1F10B004405A
:101D600000D0044000B006402FE400E0164B9B7802
:101D700003F0EC0300F00302134310F0040F18BF4C
:101D800043F01003104A937000F00F03042B04D1AA
:101D90001346927942F040029A710B4B5A7902F045
:101DA000EF0210F0100F18BF42F01002064B5A71EC
:101DB0009B7903F0EF0310F0200F18BF43F01003DE
:101DC000014A9371704700BF00B0064010B5224B26
:101DD0001B6813F4006F3ED0204B1B7813F0FF0FED
:101DE00006D01E4CFFF7C8FA237813F0FF0FF9D185
:101DF0004FF400421A4B1A6000221A4BDA701A4B49
:101E00001B78092B02D01A2B05D008E040F20312F0
:101E1000164B1A6003E040F20312154B1A60154B83
:101E20001B7803F07F030A2B02D01F2B05D008E09C
:101E300040F20312104B1A6003E040F203120F4B02
:101E40001A6000230E4A13700E4A13700E4B1B6863
:101E50000BB101221A7010BD34800440408EFF1F68
:101E600084E100E000B006406787FF1F0CB004402B
:101E700004D004406887FF1F10B0044000D0044025
:101E8000AC8EFF1F418EFF1F3C8EFF1F10B5044616
:101E9000094A137813F0FF0FFBD120460121FEF70A
:101EA0002BFB20460021FEF703FB044B53F83420A4
:101EB000034B1A6010BD00BF408EFF1FDC2F0000D7
:101EC000B08EFF1F10B40C4609B140F08000184BD3
:101ED0001B78984228D0174A126812F4006F21D05C
:101EE00003F07F030A2B02D01F2B04D006E0002250
:101EF000114B1A6002E00022104B1A60002C0CBF3C
:101F00004422602200F07F030A2B02D01F2B05D051
:101F100008E042F44072084B1A6003E042F4407259
:101F2000064B1A60024B18705DF8044B704700BFF7
:101F30006887FF1F3480044010B0044000D0044084
:101F4000124B1B78984220D0114A126812F4006F8D
:101F500019D0092B02D01A2B04D006E000220D4B19
:101F60001A6002E000220C4B1A60092802D01A28DD
:101F700005D008E040F21332064B1A6003E040F24D
:101F80001332054B1A60014B187070476787FF1FAB
:101F9000348004400CB0044004D0044010B50D4B14
:101FA0001B6813F4006F12D021280CD80A4C0B4B7D
:101FB00053F8303023600121FEF79EFA2368002297
:101FC0001A70012010BD0020034B186010BD0020C6
:101FD00010BD00BF348004403C8EFF1FDC2F00008A
:101FE0000D4B1B6813F4006F13D017280AD140F271
:101FF00002320A4B1A600A4B5A7B42F001025A73B2
:1020000001207047064B5A7B02F0FE025A730020F3
:1020100070470020704700BF3480044008B004407F
:1020200000B006402DE9F04107461F4B1B6813F432
:10203000006F37D01D4B1B680BB101221A701C4B6F
:102040001C780134282C28BF00241A4D1A4EDFF8C2
:102050006C8017E0FFF76EFA40280FDC337913F03D
:10206000800F0FD02B780133282B28BF002318F8BE
:102070000320D2B2F271DBB22B7003E0FF2801DD46
:10208000FFF77AF92B78DBB29C42E3D0FFB20B4B1F
:102090001F5501220A4B1A70E4B2054B1C70BC227A
:1020A000054BDA70BDE8F08134800440B08EFF1F2C
:1020B000B48EFF1FAD8EFF1F00B00640448EFF1F81
:1020C000408EFF1F2DE9F84F0746284B1B6813F47D
:1020D000006F49D0264B1B680BB101221A7007EB29
:1020E000010B5F453DD2DFF89890224EDFF88C80DF
:1020F000DFF890A099F800400134282C28BF002474
:102100003578EDB2A54220D1BC2388F80330FFF723
:1021100011FA402811DC98F8043013F0800F10D029
:1021200033780133282B28BF00231AF80320D2B2BA
:1021300088F80720DBB2337003E0FF2801DDFFF7EA
:102140001BF93378DBB29D42E1D017F8013B0AF866
:1021500004300122084B1A70E4B289F800405F4550
:10216000C8D1BC22054BDA70BDE8F88F348004403A
:10217000B08EFF1FAD8EFF1F408EFF1F00B00640C8
:10218000B48EFF1F448EFF1F10B5064B1B7813F053
:10219000FF0F06D0034CFFF7EFF8237813F0FF0F83
:1021A000F9D110BD408EFF1F064B1B78DBB2064AEB
:1021B0001278D2B293422CBF273202F1FF32D01AEA
:1021C000704700BFB48EFF1FAD8EFF1F054B187800
:1021D000C0B2054B1B78DBB2984238BF4030C01A02
:1021E000704700BFAC8EFF1F418EFF1F10B4184B0D
:1021F0001A78D2B2174B1B78DBB29A4218D001334F
:102200003F2B18D81449C85CC0B2DCB211490C701D
:1022100012490968C9B19A4203D300E00023D31AD6
:1022200001E04032D31A1A2B0FDC00230B700CE0B4
:102230004FF0FF3009E0084B1878C0B20021054B81
:102240001970064B19680029E8D15DF8044B7047F6
:10225000AC8EFF1F418EFF1F6C8EFF1F3C8EFF1F39
:10226000094B1A78D2B2094B1B78DBB29A4207D0DD
:102270000133402B28BF0023054AD05CC0B2704711
:102280004FF0FF30704700BFAC8EFF1F418EFF1F25
:102290006C8EFF1F0D4B1B6813F4006F14D00C4B9A
:1022A000DA7802F0CB02DA7040225A74DA7842F01F
:1022B0003402DA70074B1A78D2B2074B1A70074B08
:1022C0001B680BB100221A70704700BF34800440B5
:1022D00000B00640418EFF1FAC8EFF1F3C8EFF1FDB
:1022E00070B43D4B1B7913F0300F33D072B63A4BBC
:1022F0009B7D03F0FF022BB9374BDA7940225A74E9
:1023000062B627E062B6354B1978C9B2344B1C78F7
:10231000E4B2314D334EEB79D8B24B1C402B28BF81
:102320000023A3421CBFF0541946531E13F0FF02B2
:10233000F1D1CAB2294B1A702B4B1B6853B1A14281
:102340002EBFC4EB0101C4F1400409192729C4BF01
:1023500001221A70204BDA78D2B212F0800F27D007
:102360001B7913F0800F23D0204B1C78E4B2204B54
:102370001B78DBB29C4210D017491E4D01E0A342EE
:102380000BD00133282B28BF00230879E85CC0B2AA
:10239000C871087DC0B20728F1D9DBB214490B70AF
:1023A0000D4B1B7913F0800F02D07C210A4BD970A2
:1023B00012F0400F0ED0084B1B7913F0400F09D0DC
:1023C00000220D4B1A700D4B1B6803B11A703C2292
:1023D000014BDA7070BC704700B00640AC8EFF1F36
:1023E000418EFF1F6C8EFF1F3C8EFF1FB48EFF1FA0
:1023F000AD8EFF1F448EFF1F408EFF1FB08EFF1F4C
:10240000174B1A6842F480521A600023154A137061
:10241000154A1370154A1370154A1370154A137034
:1024200040F21331144A11604FF4517104321160BB
:10243000C0F34431114A1170C0F34711517000F0DC
:102440001F009072937013742C23D37040220C4B96
:102450001A704FF40032A3F22D331A60704700BF98
:1024600034800440288FFF1FBD8EFF1F308FFF1F59
:10247000298FFF1FBC8EFF1F08C0044000C006400C
:1024800031E400E0164B9B7803F0EC0300F003020C
:10249000134310F0040F18BF43F01003104A937059
:1024A00000F00F03042B04D11346927942F040024E
:1024B0009A710B4B5A7902F0EF0210F0100F18BF0F
:1024C00042F01002064B5A719B7903F0EF0310F0B3
:1024D000200F18BF43F01003014A9371704700BFEB
:1024E00000C0064010B5144B1B6813F4805F21D068
:1024F000124B1B7813F0FF0F06D0104CFEF73CFF79
:10250000237813F0FF0FF9D14FF400320C4B1A600F
:1025100000230C4AD37040F203120B490A600431C5
:102520000A600A4A13700A4A13700A4B1B680BB1FF
:1025300001221A7010BD00BF34800440BC8EFF1F02
:1025400084E100E000C0064008C00440288FFF1F5F
:10255000BD8EFF1FB88EFF1F10B50446094A1378C1
:1025600013F0FF0FFBD120460121FDF7C5FF2046E8
:102570000021FDF79DFF044B53F83420034B1A60F4
:1025800010BD00BFBC8EFF1FDC2F00002C8FFF1F73
:1025900010B40C4609B140F08000104B1B789842F3
:1025A00019D00F4A126812F4805F12D003F07F0333
:1025B000082B02D100220B4B1A60002C0CBF4422C6
:1025C000602200F07F03082B03D142F44072054BD8
:1025D0001A60024B18705DF8044B70476987FF1F43
:1025E000348004400CC00440704700BF10B50D4B50
:1025F0001B6813F4805F12D021280CD80A4C0B4BB7
:1026000053F8303023600121FDF776FF2368002264
:102610001A70012010BD0020034B186010BD00206F
:1026200010BD00BF34800440B88EFF1FDC2F0000B7
:102630000D4B1B6813F4805F13D00E280AD140F2B3
:1026400002320A4B1A600A4B5A7B42F001025A735B
:1026500001207047064B5A7B02F0FE025A7300209D
:1026600070470020704700BF3480044004C004401D
:1026700000C006402DE9F04107461F4B1B6813F4CC
:10268000805F37D01D4B1B680BB101221A701C4BA9
:102690001C780134282C28BF00241A4D1A4EDFF86C
:1026A0006C8017E0FEF746FF40280FDC337913F00B
:1026B000800F0FD02B780133282B28BF002318F868
:1026C0000320D2B2F271DBB22B7003E0FF2801DDF0
:1026D000FEF752FE2B78DBB29C42E3D0FFB20B4BED
:1026E0001F5501220A4B1A70E4B2054B1C70AC2234
:1026F000054BDA70BDE8F081348004402C8FFF1F59
:10270000308FFF1F298FFF1F00C00640C08EFF1FA4
:10271000BC8EFF1F38B505460C4629B115F8010BD4
:10272000FFF7A8FF013CF9D138BD00BF10B5064B3B
:102730001B7813F0FF0F06D0034CFEF71DFE237825
:1027400013F0FF0FF9D110BDBC8EFF1F064B1B7895
:10275000DBB2064A1278D2B293422CBF273202F182
:10276000FF32D01A704700BF308FFF1F298FFF1F25
:10277000054B1878C0B2054B1B78DBB2984238BFC6
:102780004030C01A704700BF288FFF1FBD8EFF1F4B
:1027900010B4184B1A78D2B2174B1B78DBB29A429E
:1027A00018D001333F2B18D81449C85CC0B2DCB232
:1027B00011490C7012490968C9B19A4203D300E06B
:1027C0000023D31A01E04032D31A1A2B0FDC002366
:1027D0000B700CE04FF0FF3009E0084B1878C0B2E6
:1027E0000021054B1970064B19680029E8D15DF8E6
:1027F000044B7047288FFF1FBD8EFF1FE88EFF1F01
:10280000B88EFF1F094B1A78D2B2094B1B78DBB286
:102810009A4207D00133402B28BF0023054AD05CE1
:10282000C0B270474FF0FF30704700BF288FFF1FC6
:10283000BD8EFF1FE88EFF1F054B1A78D2B2054BE5
:102840001A70054B1B680BB100221A70704700BF4D
:10285000BD8EFF1F288FFF1FB88EFF1F2F4B1B79C8
:1028600013F0200F23D02D4BDB79D9B22C4B1B78E2
:102870000133402B28BF00232A4A1278D2B29A4251
:1028800004D0294AD154D9B2254A1170274A116877
:1028900069B1274A1278D2B293422EBFC2EB03032A
:1028A000C2F140029B18272BC4BF01230B701B4BA6
:1028B000DB78DBB213F0800F1CD0184A127912F0CB
:1028C000800F17D01B4A1178C9B2194A1278D2B2B8
:1028D000914203D16C21114AD1700BE00132282AB8
:1028E00028BF00221449885CC0B20C49C871D2B21A
:1028F0000F490A7013F0400F0ED0084B1B7913F0EC
:10290000400F09D000220D4B1A700D4B1B6803B10C
:102910001A702C22014BDA70704700BF00C00640CD
:10292000288FFF1FBD8EFF1FE88EFF1FB88EFF1F71
:10293000298FFF1F308FFF1FC08EFF1FBC8EFF1F10
:102940002C8FFF1F00B585B072B61B4B70221A701A
:1029500041211A4A11700F21013A117080221A7018
:102960001A46137813F0800FFBD0154B186862B627
:10297000144B98429CBF00EB8000400001A90A2242
:1029800000F036FA9DF804307BB908E001A9595CE3
:1029900031B19180023201330A2BF7D100E00023DC
:1029A00001335B00084A137003E0074A5380012398
:1029B000ECE705B05DF804FB0000024007000240B0
:1029C000080002407F9698005088FF1F08B50368F2
:1029D0001B68C9B2984708BD08B503681B68C9B22F
:1029E000984708BD08B503681B68C9B2984708BD79
:1029F00008B503681B68C9B2984708BD08B54B08FD
:102A000003F1B76000F55840B0FBF1F0FEF7B2FDFE
:102A100008BD00BF10B514464B0803F1B76000F5C0
:102A20005840B0FBF1F0FEF7A5FD2046FEF70AFE88
:102A300010BD00BF08B5FEF735FE08BD08B5084655
:102A4000FEF76AFE08BD00BF08B50846FEF7BEFEE9
:102A500008BD00BF08B508461146FEF779FE08BD5F
:102A600008B50846FEF7DEFE003018BF012008BD9D
:102A700008B50846FEF7F8FE003018BF012008BD73
:102A800008B5FEF7F1FF08BD08B5FFF737F808BD38
:102A900008B5FEF7F9FF08BD08B5FEF7C3FF08BD8E
:102AA00008B5FFF745F808BD08B5FEF7CBFF08BD30
:102AB00008B50846FEF704FF012008BD08B5084622
:102AC000FEF7FEFE012008BD10B51446084611466B
:102AD000FEF746FF204610BD38B50D46084600F00B
:102AE000D1F9044628462146FEF73AFF204638BD74
:102AF000704700BF044B00221A714FF47A7199603D
:102B00001A73024A1A607047348FFF1F8031000029
:102B100008B503681B68C9B2984708BD08B50368C3
:102B20001B68C9B2984708BD08B503681B68C9B2DD
:102B3000984708BD08B503681B68C9B2984708BD27
:102B400008B54B0803F1B76000F55840B0FBF1F051
:102B5000FFF7A4F808BD00BF10B514464B0803F1F9
:102B6000B76000F55840B0FBF1F0FFF797F820464A
:102B7000FFF7FCF810BD00BF08B5FFF727F908BD47
:102B800008B50846FFF782F908BD00BF08B508463A
:102B9000FFF7D6F908BD00BF08B508461146FFF794
:102BA00091F908BD08B50846FFF7F8F9003018BFDD
:102BB000012008BD08B50846FFF712FA003018BF1B
:102BC000012008BD08B5FFF701FB08BD08B5FFF7F8
:102BD00047FB08BD08B5FFF709FB08BD08B5FFF7BF
:102BE000D3FA08BD08B5FFF755FB08BD08B5FFF7D8
:102BF000DBFA08BD08B50846FFF714FA012008BD46
:102C000008B50846FFF70EFA012008BD10B51446B6
:102C100008461146FFF756FA204610BD38B50D4656
:102C2000084600F02FF9044628462146FFF74AFAE5
:102C3000204638BD704700BF044B00221A714FF484
:102C40007A7199601A73024A1A607047448FFF1FA5
:102C5000E031000008B503681B68C9B2984708BD99
:102C600008B503681B68C9B2984708BD08B5036872
:102C70001B68C9B2984708BD08B503681B68C9B28C
:102C8000984708BD08B54B0803F1B76000F55840F8
:102C9000B0FBF1F0FFF7B4FB08BD00BF10B5144660
:102CA0004B0803F1B76000F55840B0FBF1F0FFF7B7
:102CB000A7FB2046FFF7E6FB10BD00BF08B5FFF7F6
:102CC00011FC08BD08B50846FFF746FC08BD00BF6B
:102CD00008B50846FFF788FC08BD00BF08B50846E0
:102CE0001146FFF755FC08BD08B50846FFF77EFC06
:102CF000003018BF012008BD08B50846FFF798FC52
:102D0000003018BF012008BD08B5FFF731FD08BD30
:102D100008B5FFF777FD08BD08B5FFF739FD08BD19
:102D200008B5FFF703FD08BD08B5FFF785FD08BD31
:102D300008B5FFF70BFD08BD08B50846FFF79AFC7C
:102D4000012008BD08B50846FFF794FC012008BD26
:102D500010B5144608461146FFF7DCFC204610BDAE
:102D600038B50D46084600F08DF804462846214641
:102D7000FFF7D0FC204638BD704700BF044B00224F
:102D80001A714FF47A7199601A73024A1A60704787
:102D9000548FFF1F4032000008B5FEF7D7F908BD79
:102DA00008B5FEF76FF908BD08B5FEF7A3F908BD31
:102DB00008B5FEF795FA08BD08B50846FEF784FA8F
:102DC00008BD00BF08B508461146FEF7F7F908BD73
:102DD000704700BF044B00221A714FF47A7199605A
:102DE0001A73024A1A607047648FFF1FA0320000F6
:102DF00030B40023B0FBF2F402FB14041D46092C8E
:102E000094BF30343734E4B2CC54B0FBF2F008B1A4
:102E10000133EFE70D4400226A70934207DD885CBE
:102E2000CC5C8C54C8540132013B9A42F7DB084613
:102E300030BC704770B50F4E0F4D761BB61007D0E3
:102E4000043D0024013455F8043F9847A642F9D1C7
:102E50000A4E0B4D761B00F033FAB61008D0043D35
:102E60000024013455F8043F9847A642F9D170BDBB
:102E700070BD00BFCC320000CC320000E432000054
:102E8000CC32000020F0030110F00300C0F100007C
:102E900051F8043B00F1040C4FEACC0C6FF0000237
:102EA0001CBF22FA0CF213434FF0010C4CEA0C2C1D
:102EB0004CEA0C4CA3EB0C0222EA030212EACC12FD
:102EC00004BF51F8043B0430F4D013F0FF0F1FBFD0
:102ED000013013F47F4F013013F47F0F18BF01301E
:102EE000704700BF024B13B1024800F005B87047AD
:102EF00000000000052F00000146002002460346A6
:102F000000F018B838B5094D094C641BA41018BF5F
:102F100005EB840505D0013C55F8043D9847002C8D
:102F2000F9D1BDE8384000F0DDB900BF0000000075
:102F300000000000F0B5274C2668D6F8484185B05F
:102F40000746002C41D065681F2D1EDD224818B9A8
:102F50004FF0FF3005B0F0BD4FF4C87003910292FE
:102F60000193AFF300800399029A019B0446002865
:102F7000EED0D6F848512560002060600546C6F8BE
:102F80004841C4F88801C4F88C013FB9AB1C00204B
:102F90000135656044F8231005B0F0BD04EB8500F1
:102FA0004FF0010CC0F88820D4F888610CFA05F2C3
:102FB0001643022FC4F88861C0F80831E6D1D4F86E
:102FC0008C311A43C4F88C21E0E706F5A674C6F8E4
:102FD0004841B8E7BC320000000000004008FE4352
:102FE00040A004404408FE4344A004400018FE43AF
:102FF00000C004403000FE43309004403400FE43E3
:10300000349004401C18FE431CC004401018FE43BA
:1030100010C004400818FE4308C004400C18FE43CA
:103020000CC004400C10FE430CB004401010FE43D2
:1030300010B004401810FE4318B004401C10FE43AA
:103040001CB004401410FE4314B004400418FE43A6
:1030500004C004400010FE4300B004400008FE43DA
:1030600000A004400408FE4304A004400C08FE43F2
:103070000CA004400808FE4308A004401418FE43B6
:1030800014C004401818FE4318C004400410FE4346
:1030900004B004400810FE4308B004401400FE438E
:1030A000149004404C08FE434CA004400420FE430E
:1030B00004D004402410FE4324B004402010FE43FA
:1030C00020B004402810FE4328B004402C10FE43DA
:1030D0002CB004400020FE4300D004404808FE43CA
:1030E00048A004401000FE43109004401519151923
:1030F000000100006C87FF1F1200000000020000AA
:103100009887FF1F4900000000220100E487FF1F8D
:103110002100000000210100CA87FF1F09000000F4
:10312000002200000888FF1F1C0000000021000092
:10313000AA87FF1F09000000000300004C88FF1F42
:1031400000000000010309048087FF1F0000000049
:10315000020309042488FF1F000000000303090480
:103160005088FF1F00000000000000000000000069
:1031700000000000FFFFFFFF000000000000000053
:10318000B12A0000C92A0000812A0000912A00000B
:10319000892A0000992A0000FD290000152A000054
:1031A000352A00003D2A0000492A0000552A000067
:1031B000612A0000712A0000A12A0000A92A00004B
:1031C000CD290000D9290000E5290000F1290000DF
:1031D000D92A0000BD2A0000000000000000000005
:1031E000F52B00000D2C0000C52B0000D52B000096
:1031F000CD2B0000DD2B0000412B0000592B0000DF
:10320000792B0000812B00008D2B0000992B0000F2
:10321000A52B0000B52B0000E52B0000ED2B0000D6
:10322000112B00001D2B0000292B0000352B000066
:103230001D2C0000012C0000000000000000000018
:10324000392D0000512D0000092D0000192D00001E
:10325000112D0000212D0000852C00009D2C000068
:10326000BD2C0000C52C0000D12C0000DD2C00007E
:10327000E92C0000F92C0000292D0000312D000060
:10328000552C0000612C00006D2C0000792C0000F2
:10329000612D0000452D000000000000000000002E
:1032A000B92D0000C52D0000992D0000A12D0000B2
:1032B000A92D0000B12D0000430000006888FF1F09
:1032C000F8B500BFF8BC08BC9E467047E52E00006C
:1032D00035040000F52A0000392C00007D2D000087
:0432E000D52D0000E8
:0432E400F8B500BF7A
:1032E800FFFFFFFF0A0401090A080000120101019B
:1032F80000000040C016860400020102030100001D
:1033080018035400650065006E00730079006400BE
:10331800750069006E006F0009024900020100C0D3
:103328003209040000020300000009211101000114
:10333800221C000705830340000107050403400021
:103348000109040100020300000009211101000124
:103358002221000705810340000107050203200020
:103368000200000006C9FF0904A15C7508150026C3
:10337800FF00954009758102952009769102950410
:103388000976B102C000000006ABFF0A0002A101E5
:103398007508150026FF009540090181029540092E
:1033A800029102C026035400650065006E00730098
:1033B80079006400750069006E006F0020005200FB
:1033C8006100770048004900440000000403090434
:1033D8000C030000000000000000000000000000D6
:1033E800000000000000000000000000548BFF1FD8
:1033F800BC8BFF1F248CFF1F000000000000000092
:1034080000000000000000000000000000000000B4
:10341800000000000000000000000000B8320000BA
:103428000000000000000000000000000000000094
:103438000000000000000000000000000000000084
:103448000000000000000000000000000000000074
:103458000000000000000000000000000000000064
:103468000000000000000000000000000000000054
:103478000000000000000000000000000000000044
:103488000000000000000000000000000000000034
:1034980001000000000000000E33CDAB34126DE6D1
:1034A800ECDE05000B00000000000000000000003A
:1034B8000000000000000000000000000000000004
:1034C80000000000000000000000000000000000F4
:1034D80000000000000000000000000000000000E4
:1034E80000000000000000000000000000000000D4
:00000001FF
