:1000000000800020BD010000ED6C0000A56C000028
:10001000A56C0000A56C0000A56C0000A56C00009C
:10002000A56C0000A56C0000A56C0000ED6C000044
:10003000ED6C0000A56C0000F5610000F9620000A5
:10004000ED6C0000ED6C0000ED6C0000ED6C00004C
:10005000ED6C0000ED6C0000ED6C0000ED6C00003C
:10006000ED6C0000ED6C0000ED6C0000ED6C00002C
:10007000ED6C0000ED6C0000ED6C0000ED6C00001C
:10008000ED6C0000ED6C0000ED6C0000ED6C00000C
:10009000ED6C0000ED6C0000ED6C0000ED6C0000FC
:1000A0008536000091360000ED6C0000ED6C00001C
:1000B000ED6C0000ED6C0000ED6C0000ED6C0000DC
:1000C000ED6C0000ED6C0000ED6C0000ED6C0000CC
:1000D000ED6C0000ED6C0000ED6C0000ED6C0000BC
:1000E000ED6C0000ED6C0000ED6C0000ED6C0000AC
:1000F000ED6C00002D7A0000ED6C000085810000A1
:10010000ED6C000009870000ED6C0000ED6C000054
:10011000ED6C0000ED6C0000ED6C0000ED6C00007B
:10012000ED6C0000ED6C0000ED6C0000ED6C00006B
:10013000ED6C0000ED6C0000ED6C0000ED6C00005B
:10014000ED6C0000ED6C0000ED6C0000ED6C00004B
:10015000ED6C0000ED6C0000ED6C0000ED6C00003B
:10016000ED6C000095890000ED6C0000ED6C000066
:10017000ED6C0000ED6C0000ED6C0000ED6C00001B
:10018000ED6C0000ED6C0000ED6C0000ED6C00000B
:10019000ED6C0000ED6C0000ED6C0000ED6C0000FB
:1001A000ED6C0000ED6C0000ED6C0000ED6C0000EB
:1001B000ED6C0000ED6C0000B15F0000564B4CF29E
:1001C000205210B51A804DF628121A8000BF00BFC9
:1001D00006F090FD514B4FF010621A60504A9A6041
:1001E000504ADA60504A136813F4807304D14F49BF
:1001F0000B604FF4A85313604D4B1A78110703D5C9
:100200001A7842F008021A704A4B4B492A221A7097
:100210004A4A4B4B8B4204D252F8040F43F8040B6A
:10022000F8E7484B484900228B4202D243F8042B9E
:10023000FAE74649464A002352F8230041F82300D2
:1002400001336F2BF8D1434B434A802103F8011B44
:100250009342FBD1414B3D4A1A60414B8A221A70AE
:10026000A3F5805324225A70A0221A709A7992071B
:10027000FCD59A79D406FCD43A4A937903F00C035E
:10028000082B384BF9D105221A7143225A719A79F9
:100290009006FCD5334A9179324B4906FBD5324A58
:1002A0004FF0817111600521516020221A709A79F6
:1002B00002F00C020C2AFAD12C4B2D4A1A602D4B5D
:1002C0002D4A1A6000225A60072243F8042C2B4A58
:1002D000C3F80C2D62B607F00BF8144B1B68DA0755
:1002E00005D5274806F08AFE264B274A1A60274B79
:1002F0001B785B0609D5234C234B22689A4204D114
:100300001F4806F07BFE002323600AF093FC06F0F2
:10031000F7FC06F025FCFEE70E2005403080044087
:10032000823F04000100002B10D0034014D0034092
:1003300002D0074000E00740FCA2FF1F1CCE0000D7
:100340004096FF1FFCA2FF1F10B4FF1F0090FF1F6D
:100350000000000000E400E05FE400E008ED00E0E1
:1003600000500640004006404480044004800440A1
:10037000C010050014E000E03F190100000020203B
:10038000C2AD615D1CE00340A5C3945A00F0074074
:10039000FFFFFFFFFFFFFFFFFFFFFFFFFFFFFFFF6D
:1003A000FFFFFFFFFFFFFFFFFFFFFFFFFFFFFFFF5D
:1003B000FFFFFFFFFFFFFFFFFFFFFFFFFFFFFFFF4D
:1003C000FFFFFFFFFFFFFFFFFFFFFFFFFFFFFFFF3D
:1003D000FFFFFFFFFFFFFFFFFFFFFFFFFFFFFFFF2D
:1003E000FFFFFFFFFFFFFFFFFFFFFFFFFFFFFFFF1D
:1003F000FFFFFFFFFFFFFFFFFFFFFFFFFFFFFFFF0D
:10040000FFFFFFFFFFFFFFFFFFFFFFFFDEF9FFFF23
:1004100010B5054C237833B9044B13B10448AFF33E
:1004200000800123237010BDFCA2FF1F000000000C
:1004300020CE0000084B10B51BB108490848AFF3A7
:1004400000800848036803B910BD074B002BFBD0A0
:10045000BDE81040184700BF0000000000A3FF1FC8
:1004600020CE0000FCA2FF1F00000000704700BF6C
:1004700008B50121152006F0D1FEFF21162006F057
:10048000CFFD0D4A13680133082B05DC13600B48C0
:10049000BDE8084004F04CBE6FF0070300211520B2
:1004A000136006F0BBFE1620002106F0B9FD0348DC
:1004B000BDE8084004F03CBE18A3FF1FA0AAFF1F20
:1004C00010B5044605F01EFD204610BD1F4B10B4AC
:1004D000DA6A1368506819780478507A137A0442FB
:1004E00001EA03011AD0937A03F0030309B143F040
:1004F000040343F008039910013B91720D2B0BD8B4
:10050000DFE803F01E0719070A141E1E140A071954
:10051000071ED368013BD36010BC7047937A03F089
:1005200003030029E7D043F00403E4E7D36810BCD9
:10053000023BD3607047D36810BC0233D36070476E
:10054000D36810BC0133D360704700BFDCAEFF1F1F
:100550001F4B10B41A6B1368506819780478507ADE
:10056000137A044201EA03011AD0937A03F00303D9
:1005700009B143F0040343F008039910013B917261
:100580000D2B0BD8DFE803F01E0719070A141E1EF7
:10059000140A0719071ED368013BD36010BC7047CB
:1005A000937A03F003030029E7D043F00403E4E760
:1005B000D36810BC023BD3607047D36810BC0233D1
:1005C000D3607047D36810BC0133D360704700BF5D
:1005D000DCAEFF1F2DE9F041164DDFF864800024EA
:1005E0002C60002600273946304609F0EFFFC4EBA7
:1005F000441401467C2208EB840006F039FA3046A8
:10060000394600220C4B09F095FB2C680134092C6B
:1006100006460F462C60E6DD0022074B09F08AFBF8
:1006200009F0D4FF01220146BDE8F041034806F07D
:100630001FBA00BF94AAFF1F00005F406CA3FF1FFA
:1006400070A3FF1F2DE9F047DFF870A0184D0023BD
:10065000CAF800309946002600273046394609F08E
:10066000B5FF2C46C5EB00087C3508EB040006F00E
:10067000E5F904F8010BA542F7D1304639460022CE
:100680000C4B09F057FB09F10109B9F10A0F0646B5
:100690000F46CAF80090E0D1064B002209F04AFB51
:1006A00009F094FF06F0CAF9034B1870BDE8F08713
:1006B00070A3FF1F00005F406CA3FF1F94AAFF1FE1
:1006C0002DE9704390469946064609F07FFC30A319
:1006D000D3E9002309F00AFE002204460D46304B00
:1006E0004046494609F002FE2BA3D3E9002309F056
:1006F000D3FC29A3D3E9002309F01CFB2246804642
:1007000089462B460020274909F012FB02460B467A
:1007100009F010FB22462B4609F0BEFC02460B46B0
:100720004046494609F0B8FC22462B468046894699
:100730002046294609F0B0FC15A3D3E9002309F0AF
:10074000ABFC02460B464046494609F0F3FA00224C
:10075000002304460D4609F025FF58B10022124B34
:100760002046294609F0E6FA09F030FFC0EB4600C2
:10077000BDE8708300220C4B2046294609F0D8FAC8
:1007800009F024FFC0EB4600BDE87083AFF30080A2
:100790000000000000C05F400000000000C04F40AB
:1007A000000059400000F03F0000E03F38B590F8ED
:1007B00064308164012213430025044662F3470339
:1007C0004FF6FF7280F8643080F84C5080F84D503E
:1007D00080F84E504565856580F8655080F8665014
:1007E00080F8675080F8685080F8E950C26502666A
:1007F0002946802269300AF071FD25606560A56098
:10080000E56025616561A561E56125626562A562B6
:10081000E56225636563A563E56325646564204639
:1008200038BD00BF2DE9F0479DF82040013CE4B2FF
:100830000F2C03D84EB2002E0D4601DBBDE8F08729
:10084000E0290FD9F729F9D90835EDB2012303FAC8
:1008500005F515F0DD0FF1D0806C0368BDE8F047B9
:100860001B6818478146806C1F46036846EA0401EE
:10087000C9B21B6890469847D9F84800036808F049
:100880007F011B6805F0EF059847C02DD6D0D9F839
:100890004800036807F07F011B68BDE8F047184770
:1008A00070B5B74DB748B84C82B005F0E9F92B7870
:1008B000B448C3EB431304EB83039B7B03B305F002
:1008C0000FFA58B12B785801C21A04EB8202917AC0
:1008D00021B1012900F0828002295CD0A94805F0ED
:1008E000F5F958B12B785801C11A04EB81018A7AC5
:1008F00022B1012A00F09180022A29D002B070BDF5
:1009000005F0EEF90028F9D02B785E01F21A04EB1D
:100910008202917A0029F1D0D07B60B1012900F0E8
:100920001381022900F09880F31A04EB830400235A
:10093000E37302B070BD012900F05481022900F078
:100940002B81F31A04EB83040123E37302B070BD1F
:10095000C11A04EB81010A7A42B1013AD2B2032AE8
:1009600040F2D48008F0CAFE2B785801C31A04EB79
:100970008304637A022B00F04E81032B00F0548134
:10098000012BBBD1237BE27A804800938021002396
:10099000FFF748FFB2E7C11A04EB81010A7A42B1BE
:1009A000013AD2B2032A40F2228208F0A7FE2B7845
:1009B0005801C31A04EB83014B7A022B00F09A8191
:1009C000032B00F09A80012B88D14B7BCA7A097BDC
:1009D00000916E489021FFF725FF7FE7117A0029EB
:1009E00075D1527A022A00F07B81032A00F06E81D1
:1009F000012A7FF473AFC31A04EB8300B021437B59
:100A0000C27A007B00906148FFF70CFF2B785801F9
:100A1000C21A04EB8202917A5EE70A7A002A40D178
:100A20004A7A022A00F04881032A00F03B81012A19
:100A30007FF464AFC31A04EB83000023017BC27A06
:100A400052480091B021FFF7EDFE2B785801C21AF1
:100A500004EB8202927A4FE7F11A04EB81010A7AE1
:100A600042B1013AD2B2032A40F2D98108F046FEDF
:100A70002B785E01F11A04EB81014A7A022A58D0E0
:100A8000032A00F04081012A7FF44EAF0B7BCA7A23
:100A90003E48009380210023FFF7C4FE2B785E01BF
:100AA00042E7013AD2B2032A40F2388108F026FE2A
:100AB0002B785801C21A04EB8202517A022900F005
:100AC000FB80032900F0EE800129C3D1B2E7013990
:100AD000C9B2032940F2738108F010FE2B78580147
:100AE000C21A04EB8202517A022900F0F98003292C
:100AF00000F0EC8001298ED17DE74B7BCA7A097B1F
:100B0000009123489021FFF78DFEE7E6C87A0B7B22
:100B1000000400F4FE0040EA0212581E42F40042B3
:100B2000000242F0080200F47060104308F050FD2B
:100B300018E70B7BCA7A1748009380210023FFF740
:100B400071FE2B785E01EFE6117A002900F08F80AC
:100B50000139C9B2032940F28D8108F0CFFD2B780D
:100B60005E01F21A04EB8202517A022900F01D8123
:100B7000032900F01081012900F08380917AD0E6EA
:100B80006CA3FF1F3CA3FF1F70A3FF1F5CA8FF1FE8
:100B9000A4A9FF1FDCAAFF1FF11A04EB81010A7A46
:100BA00042B1013AD2B2032A40F27E8108F0A6FD9A
:100BB0002B785E01F11A04EB81014A7A022A00F0D7
:100BC000DF80032A00F0D180012A7FF4BAAE4B7B8C
:100BD000CA7A097B0091B1489021FFF723FE2B7858
:100BE0005E01AEE6117A41B30139C9B2032940F280
:100BF000298108F083FD2B785E01F21A04EB820252
:100C0000517A022900F0A780032900F09A80012977
:100C10001CD0917A92E6237BE27AA148009380214E
:100C20000023FFF7FFFD69E6237BE27A9D480093EE
:100C300080210023FFF7F6FD60E6527A022A00F0D9
:100C40008A80032A7DD0012A7FF47BAEF31A04EB5D
:100C50008300B021437BC27A007B00908F48FFF76E
:100C6000E1FD2B785E01F21A04EB8202D1E7527AA1
:100C7000022A00F09A80032A00F08D80012A7FF476
:100C800053AEF31A04EB83018448CA7A097B0091BE
:100C90000023B021FFF7C6FD2B785E01F21A04EBAA
:100CA00082026BE7C31A04EB83000023017BC27A44
:100CB00000917C48B021C6E6C31A04EB83000023F0
:100CC000017BC27A00917648B021BCE6C31A04EBDE
:100CD0008300B021437BC27A007B0090714893E689
:100CE000C31A04EB8300B021437BC27A007B0090DF
:100CF0006B4889E64B7BCA7A097B00916848902152
:100D0000FFF790FDEAE50B7BCA7A664800938021E5
:100D10000023FFF787FD2B785E0105E6CB7A087B81
:100D20001B0403F4FE0343EA0213013843F4304387
:100D3000000243F00B0300F47060184308F048FC15
:100D4000B4E6F31A04EB8300B021437BC27A007B44
:100D50000090544883E7F31A04EB8300B021437BEF
:100D6000C27A007B00904E4879E74B7BCA7A097BB8
:100D700000914C489021FFF755FD2B785E01E0E58E
:100D80004B7BCA7A097B009145489021FFF74AFDC9
:100D90002B785E01D5E5F31A04EB83014148CA7A4A
:100DA000097B00910023B02174E7F31A04EB83015F
:100DB0003B48CA7A097B00910023B0216AE7D37AC5
:100DC000507B127B1B0403F4FE0343EA011343F43C
:100DD00030430106013A01F0FE41120243F00B03D9
:100DE0000B4302F47060184308F0F2FB74E6CB7A10
:100DF000487B097B1B0403F4FE0343EA021300064D
:100E00004A1E43F4104300F0FE41120243F009036E
:100E10000B4302F47060184308F0DAFBC5E5CB7AA7
:100E2000087B1B0403F4FE0343EA0213013843F476
:100E30000043000243F0080300F47060184308F018
:100E4000C7FB13E6D37A507B127B1B0403F4FE032B
:100E500043EA011343F430430106013A01F0FE4135
:100E6000120243F00B030B4302F47060184308F0C6
:100E7000AFFBBEE6D37A107B1B0403F4FE0343EA08
:100E80000113013843F43043000243F00B0300F434
:100E90007060184308F09CFB5FE600BF5CA8FF1F72
:100EA000DCAAFF1FA4A9FF1FCB7A487B097B1B0488
:100EB00003F4FE0343EA021300064A1E43F4104300
:100EC00000F0FE41120243F009030B4302F470608C
:100ED000184308F07DFB69E6F8B50446806C0368AA
:100EE0001B69984708B90020F8BDA06C03685B69CE
:100EF0009847C3B203F0FB02F92AF4D0A26D82B97D
:100F000094F84D2084F84F30150600F19E8040B2D1
:100F10000028C0F26481002084F84D00A06560655F
:100F2000F8BD010669D494F84F10F02904EB0201D2
:100F300040D081F84F30616D4B1E9A4240D394F8F7
:100F40004F20F02AE7D013063DD4002384F8663002
:100F5000B02B4CD0A02B4AD0D02B48D0E02B46D081
:100F6000C02B44D0002084F86500032994F8500079
:100F700008BF94F8515084F8670018BF002500217D
:100F80000120B02B84F86850A165616584F8E90000
:100F900000F0B78000F2AE80902B00F0B280A02B62
:100FA00000F0AF80802B00F0AC80002384F84D303F
:100FB0000120F8BD81F86930636D013B9A42AAD2E5
:100FC0000132A2658FE702F10C03DBB2012BBCD921
:100FD00002F0FB03F92BB8D0EF2A00F2FE8002F0FA
:100FE000F003802B84F8663001D0902BB0D102F052
:100FF0000F00013084F86500B7E7A3F1F701082975
:1010000091D8012505FA01F010F4DD7F40F09680BB
:10101000002988D194F86930F02B7FF47CAF561CFE
:101020002244F720370A82F8690084F8676084F860
:10103000687084F8651084F84D10284684F866308E
:1010400084F8E950A1656165F8BD02F10C01CDB2EB
:10105000012D7FF65CAF02F0FB05F92D3FF457AF91
:10106000EF2A2ED802F0F006802E2BD140B20028B5
:10107000FFF64EAF012084F84F2084F85030A06571
:10108000C9B201297FF647AF02F0FB03F92B3FF409
:1010900042AFEF2A5FD802F0F003B02B26D01ED962
:1010A000D02B04D0E02B21D0C02B7FF434AF02230F
:1010B00063650121A36D994227D90133A3650020FF
:1010C000F8BD164606F0DF05902DCFD006F0BF051F
:1010D000A02DCBD006F0EF06C02EC7D017E7902B7F
:1010E00004D0A02B02D0802B7FF415AF03236365BF
:1010F0000221DFE7D02B04D0E02B02D0C02B7FF4FD
:1011000054AF84F84D200120F8BDEF2A94BF02F0BF
:10111000F005154602F00F020023013294F850103A
:1011200084F86520012084F8671084F8683084F81A
:101130006650A365636584F8E900F8BD002284F871
:10114000672084F8682084F8652084F8663084F885
:10115000E9502846F8BDA2F1F0030F2B3FF6DBAEB5
:1011600001A151F823F000BFA9110000AF10000049
:10117000ED100000AF100000170F0000170F000067
:10118000BD110000170F0000BD110000170F000077
:10119000BD110000BD110000BD110000170F0000BF
:1011A000BD110000BD11000000218020F02384F853
:1011B0004D10606584F869307F217BE700230120B2
:1011C00084F8653084F8673084F8683084F86620E5
:1011D000A365636584F8E900F8BD1346B6E61A46D0
:1011E00003F10C014CE700BF90F86630803B7F2B89
:1011F00043D8DFE803F04742424242424242424281
:1012000042424242424251424242424242424242AF
:10121000424242424242AE42424242424242424242
:10122000424242424242A64242424242424242423A
:10123000424242424242AA42424242424242424226
:10124000424242424242814242424242424242423F
:101250004242424242428942424242424242424227
:101260004242424242429B405563424269426D4281
:10127000717579427D43036A1BBB7047436C002B39
:10128000FBD018470368002BF7D090F8682090F83F
:10129000671090F8650018474368002BF5D1ECE71C
:1012A000426A002AE9D090F8683090F86700DB01C4
:1012B00003F47E5300F07F0018431047836A002B2D
:1012C000DBD090F867001847C36A002BD9D1D4E768
:1012D000036B002BD5D1D0E7436B002BD1D1CCE7EA
:1012E000836B002BCDD1C8E7C36B002BC9D1C4E7FA
:1012F000036C002BC5D1C0E74369002BBDD090F82B
:10130000671090F8650018478269002AB5D090F8F8
:10131000681090F8673090F86500C90101F47E51BB
:1013200003F07F031943A1F500511047C369002B57
:10133000A3D0B0F86710802900F1690028BF802190
:101340001847C368002BA0D197E70369002BD6D1BB
:1013500093E78368002B98D18FE700BF90F8643043
:10136000DA0718D513F0FE0F15D070B590F8665057
:1013700085F08002602A82B004460DD890F865603E
:101380008E4231D081B35B08012B32D0032B00F0A9
:10139000988002B070BD7047A5F1F0030F2BF8D80C
:1013A00001A252F823F000BF9B1400007B14000040
:1013B0004D1400002D14000093130000931300003F
:1013C000071400009313000007140000931300009B
:1013D0000714000007140000071400009313000016
:1013E00007140000071400005B08012B01D0022B3A
:1013F000CFD194F8683094F86720009629462046AB
:10140000FFF710FAC5E705F10803DBB2072BC0D8D8
:10141000012202FA03F313F0DD0FBAD0A06C0368C7
:101420001B68294602B0BDE870401847806C94F8EC
:1014300067500368F3211B689847A06C0368DB6C56
:1014400005F07F0102B0BDE870401847806C94F849
:101450006730026894F868501268F22143EAC515B3
:101460009047A06C036805F07F019B6C9847A06CC7
:101470000368C5F3C6119B6CE4E7806C94F8675071
:1014800094F8683002682D0103F00F0305F0700531
:101490001268F1211D439047C0E7B0F86760802EC5
:1014A00028BF802600F16905002E3FF472AF2E445C
:1014B000A06C15F8011B03681B689847B542F7D16B
:1014C00067E794F8683094F8672000962946FFF79C
:1014D000A9F95EE72DE9F041042182B08D488E4CD8
:1014E0008E4E02F063FE8E4A8E498A4809F090FBC8
:1014F00005F05CFA8C498D48FFF758F9884A8C4909
:101500008A4809F085FB8B498B48FFF74FF9844ADD
:101510008749894809F07CFB88498948FFF746F9E3
:101520007F4A8349864809F073FB864A864B1268D6
:101530000192019A1A6002210522844804F06AFB94
:101540000021012004F118020B4660722261217211
:10155000E1602660254600E02A6942F82310627A9D
:101560006D4801339A42F7DC794F3A680AB9CDE009
:101570001A465369002BFBD154614FF00008754D9A
:10158000754A764B764820604FF088416248226267
:101590002363C4F81480A4F80480A4F8068084F8B7
:1015A0000A8003F0F9FD4FF0010E05F1180247F62D
:1015B000FF702E604346A4F82E80414685F80880CF
:1015C000C5F80C8085F809E02A612E46A08500E068
:1015D000326942F823106A7A5E4801339A42F7DC96
:1015E0003A685B4B0AB993E01A465369002BFBD16A
:1015F000556100265B4F5C4B6E61AE80EE80AE7233
:1016000054482B6003F004FC384687E830003E72F3
:101610007E72FE603E7404F041FC3846404A5349F5
:10162000534D09F0F5FA05220E21524804F0F2FA62
:1016300005220F21504804F0EDFA02210C2005F09C
:1016400001FE02210B2005F0FDFD4C4BEE60196EF2
:101650009A6D012001F5007602F500744BF6803397
:101660002E606C6028726872013BFDD191F80032E7
:1016700092F80022424E434935630340D20744BFEB
:1016800043F00203DBB204220C20AB72012405F00C
:10169000F5FB04223C49F5620B202C7405F0EEFBAF
:1016A0002B7C3A4A3A48D2F800E05768234400219C
:1016B0002B74224600F59B660D4640F824EC40F85A
:1016C000207C00F81C2C00F81B2C00F81A1C00F8D9
:1016D000182C00F8151C00F16404034603F8142CC0
:1016E00003F8132C03F8121C03F8112C43F8081C00
:1016F00003F8041C1433A342F0D180F85050456520
:101700007C30B042D9D102B0BDE8F081386034E716
:1017100018606EE748A9FF1FA0AAFF1F24BD0000A4
:101720001C97FF1FF54100005C98FF1F5CA8FF1F7E
:101730006D0400006C98FF1FDCAAFF1F7C98FF1F40
:10174000A4A9FF1FB8AFFF1FC8ABFF1F3CA3FF1F1B
:1017500064AFFF1F1CA3FF1FE63C010082902C001A
:10176000F0CA000048A8FF1FE4CA0000C10400003E
:10177000CCABFF1F4CA3FF1F5CA3FF1F40CC00009E
:10178000DCAEFF1F51050000CD04000028BD0000A5
:1017900094A3FF1F30B51E4C87B0204603F05EF8BF
:1017A0002046022102F02AFC2046012102F02CFCF6
:1017B00000221146204602F01DFC164B16491B78EC
:1017C000C3EB431301EB830102A805F033F802A930
:1017D000204604F071FF204604F094FF02A804F0B4
:1017E000E9FF204602F01AFC0546204602F01AFCEA
:1017F000113800B2012200902B46204601920021B0
:10180000112202F0E3F8204603F034F907B030BDAE
:1018100048A9FF1F6CA3FF1F70A3FF1F10B5134C37
:10182000204603F01BF800222046114602F0E2FB9E
:1018300020460122002102F0EBFB0A220C4920463F
:1018400004F024FF204603F015F90A4B0A4A1B78DE
:10185000C3EB431302EB83039A6F72B6074BDA6054
:1018600062B6074B00221A6010BD00BF48A9FF1FD7
:1018700030BD00006CA3FF1F70A3FF1FCCABFF1F88
:101880002C97FF1F2DE9F0475B4E5C4D3378C3EB7F
:10189000431305EB830382B09A6F72B6584BDA603C
:1018A00062B63378DFF87081564AD8F800101268B3
:1018B000554C5648C3EB431305EB830391429B6F92
:1018C000C6BF013102FB03325A4392FBF1F2002101
:1018D0002260012202F09CFB00225A214B4802F0B8
:1018E00089FB03224A49494804F0D0FE00225A21CC
:1018F000464802F07FFB2168444804F053FF3378E8
:101900004248D8F80040C3EB431305EB83039F6FB5
:1019100002F084FB031F9C425DDDC31E07FB03F73F
:10192000631C97FBF3F302333A4F38483B6002F0F5
:1019300075FB0446354802F075FB113800B24FF0D4
:1019400001092346112200210090CDF804902F4870
:1019500002F03CF82D48B7F900A002F05FFB3B68AD
:10196000C3F57F43FE33034428481CB202F05AFB00
:10197000153800B2002223465146009001922348B8
:10198000132201F0A1FF21483C6802F04BFB023C0E
:10199000153800B224B22346132202210090CDF85C
:1019A00004901A4801F090FF184803F063F8327869
:1019B000D8F80010C2EB421205EB8205FF29AB6F8D
:1019C0000FDCC3EB0323172093FBF1F102B0BDE85A
:1019D000F04705F025BB03FB07F393FBF4F3023359
:1019E000A2E71A021720494492FBF1F102B0BDE8C8
:1019F000F04705F015BB00BF6CA3FF1F70A3FF1FCE
:101A0000CCABFF1F3097FF1F9CAAFF1F48A9FF1FE9
:101A10003CBD000090AAFF1F2497FF1F2DE9F04F47
:101A2000DFF80493DFF804B3002689B0C9F800603A
:101A30003446B34B1D786E01731BA7009B003A1907
:101A400003EB82035B449B7C013B042B00F20F827F
:101A5000DFE813F0C900700183000D020500731B5D
:101A60009B00274403EB87075F443B7C002B40F03F
:101A70000182A44CD9F80030751BAD0003EB830341
:101A800005EB83035B445A7C022A00F01782032A89
:101A900000F02682012A10D12268DB7C00934FF4EB
:101AA000FA7303FB02F202F50052C2F3C613E021FF
:101AB00002F07C029448FEF7B5FE22684FF4FA73F8
:101AC00003FB02F303F5FA53904A1B0282FB032146
:101AD000DB17C3EB2131172005F0A2FA0022012108
:101AE0008B4802F095FA12222821894802F082FAE6
:101AF00009228849864804F0C9FD12222821844819
:101B000002F078FA23688248322101FB03F104F0E5
:101B100049FE7F4804F0F6FD7D4802F0ABFF784BAC
:101B20007D491B78D9F8004009680791C3EB43133E
:101B300004EB84019B0003EB8103784A0799116051
:101B40005B44012083F820000134042CC9F80040D4
:101B50007FF76FAF09B0BDE8F08F714ADFF8D08131
:101B60001268731B0BEB83037F2A9B6FC6BF013286
:101B7000DB01C3EBC31393FBF2F2731B9B003C44EA
:101B800003EB84045C44C8F80020237E934207DA08
:101B9000637E934204DD94F82030002B00F0B28184
:101BA000D9F80040731BA10008199B0003EB8003C8
:101BB0005B44187E904202DC5B7E9342C4DA731B66
:101BC0009B000A1903EB82035B4493F82030002B3F
:101BD000BAD0751BAD00214405EB810159440023A7
:101BE00081F82030B0E74E4A731B0BEB8303D2F829
:101BF00000A09B6F0393BAF17F0F40F35781DB0185
:101C00001A4605930AF1010392FBF3F30493C5EB23
:101C100006084FEA880307EB040803EB8808D8445A
:101C2000404AD8F81C00C82303FB00F382FB0320C2
:101C30001844DB17C3EBA010643808F0C7F902465C
:101C40000B460498FEF73CFD98F8181098F819E038
:101C500098F8152098F81630C1EB0E0C9B1A9C458D
:101C6000A0EB010040F31C8103FB00000CF1010319
:101C700090FBF3F31344DFF8B880BAF17F0FC8F894
:101C8000003040F302810AF10102059890FBF2F264
:101C90008A4240F3EC80964540F3E980721B3C4455
:101CA000970007EB84045C44227C4AB1013AD2B22B
:101CB000032A40F29C8107F021FD114B1D786E0133
:101CC000D9F80040184F751BAD0004EB840105EBFB
:101CD000810159444B7C022B00F06681032B00F0FC
:101CE0006E81012B7FF430AF0A7DC97C98F80030FB
:101CF00005480091B021FEF795FD3C6824E700BF40
:101D00006CA3FF1F2C97FF1F5CA8FF1FE12A8841CF
:101D100048A9FF1F40BD0000B8AFFF1FC8ABFF1FA1
:101D20002497FF1F0904028194AAFF1F70A3FF1FBD
:101D30009CAAFF1FC04BDFF818831B68721B0BEBBC
:101D400082027F2B926FC6BF0133D201C2EBC21257
:101D500092FBF3F3721B92003C4402EB84045C445C
:101D6000C8F80030227E9A4206DA627E9A4203DD8B
:101D700094F82020002A49D0D9F80010721B88005E
:101D80004418920002EB84025A44147E9C4202DC06
:101D9000527E9A426BDA731B9B00421803EB82035C
:101DA0005B4493F82030002B61D0751BAD000144DB
:101DB00005EB810159440B7C33B1013BDBB2032BB2
:101DC00040F2648107F09AFC9C4BD9F800401F78E0
:101DD0009B4D1E467B01D81BA1008200081902EB17
:101DE00080005844427C022A00F04981032A00F016
:101DF000F180012A00F03C81DB1B9B00214403EBB6
:101E000081015944002381F820309DE6237C4BB1A9
:101E1000013BDBB2032B40F2808107F06FFC874B64
:101E20001D786E01D9F80010854C8800731B9B004B
:101E3000471803EB87075F447B7C022B00F00A8185
:101E4000032B00F04281012B00F03881731B4218F4
:101E50009B0003EB82035B44D8F800201C7E012723
:101E6000944283F82070A0DC5B7E9A429DDCD9F816
:101E7000004069E6013BDBB2032B724C75D907F0D9
:101E80003DFC6E4B1D786E01F4E5059A0398121A1D
:101E900092FBFAF28A423FF7FEAED9F8004053E6D1
:101EA00003FB00F393FBFCF08318E4E6039AD301F1
:101EB00005939B1A93FBFAF30493A8E62268DB7C54
:101EC00000934FF4FA7303FB02F202F50052C2F3DF
:101ED000C613E02102F07C025B48FEF7A3FCECE5B0
:101EE0002268DB7C00934FF4FA7303FB02F202F5E5
:101EF0000052C2F3C613E02102F07C025348FEF701
:101F000091FCDAE5237C4BB1013BDBB2032B40F2C1
:101F1000F18007F0F3FB494B1D786E01D9F80040C2
:101F2000474FA100731B0A199B0003EB82035B441C
:101F30005A7C022A72D0032A00F0D580012A00F0D0
:101F4000CB80731B0A199B0003EB82035B44D8F818
:101F50000020187E0127824283F82070FFF639AEF8
:101F60005B7E9A427FF7F0AD33E62168F87C4FF450
:101F7000FA7202FB01F201381B0102F30D0202F5B5
:101F80000052000243F46043110400F4706043F017
:101F90000E030343520401F4FE00034302F0FE402B
:101FA000184307F015FB6AE70A7DC97C98F80030F2
:101FB00025480091B021FEF735FC3C68C4E50A7D58
:101FC000C97C98F8003021480091B021FEF72AFC26
:101FD0003C68B9E5C17CC37D027D1C48009180212D
:101FE000FEF720FC37782C687B01A10004E7217DF7
:101FF000E07C090401F4FE0141EA0212411E42F4B0
:10200000304209021B0601F4706142F00B0203F03A
:10201000FE400A43104307F0DBFA4CE61A7D0A48FB
:10202000DB7C0093C0210023FEF7FCFB034B3C68E4
:102030001D78A1006E0184E72497FF1F6CA3FF1F8A
:1020400094AAFF1F2C97FF1FDCAAFF1FA4A9FF1F44
:102050009CAAFF1FF97C3D48FB7D3A7D00919021B1
:10206000FEF7E0FB3A4B21681D7888006E01EDE633
:10207000C17CC37D027D009136488021B0E7C17CE0
:10208000C37D027D009131488021A9E70A7DC87D8A
:10209000C97C120402F4FE0242EA031300064A1E3F
:1020A00043F4004300F0FE41120243F008030B43E7
:1020B00002F47060184307F08BFA83E6F97CFB7D2D
:1020C0003A7D244800919021CAE7F97CFB7D3A7D56
:1020D000214800919021C3E71A7DDB7C0093C02149
:1020E00000231C48A0E71A7DDB7C0093C02100235D
:1020F000194899E7227DE07C120402F4FE0242EACC
:102100000313013843F44043000243F00C0300F48E
:102110007060184307F05CFAFBE6227DE17CE07D0D
:10212000120402F4FE0242EA031300064A1E43F4BC
:10213000104300F0FE41120243F009030B4302F486
:102140007060184307F044FA67E600BFDCAAFF1F7F
:102150006CA3FF1F5CA8FF1FA4A9FF1FF8B563486D
:10216000634F644D644E02F079FB002211465F48D4
:1021700001F040FF012200215C4801F049FF0922E3
:102180005E495A4804F082FA584802F073FC5C48F1
:1021900003F076FD5B4803F073FD594803F0A0FDA2
:1021A0000446002848D1564803F06AFD204607F04F
:1021B000BBFA0028F1D02B78F02BEED13378F02B3E
:1021C000EBD173787D2BE8D1F278052A43D8002A29
:1021D00065D1B3784C4AB17A3479F07AC3EB4313C2
:1021E00002EB83030A1C71791C725972B479F1797C
:1021F0009C7218BF0122347A19737F28717ADC72BD
:1022000059739A7348D0394802F028FB0022012103
:10221000364801F0FDFE00221146344801F0EAFE86
:102220000F223A49314804F031FA304804F06AFA92
:102230002E4802F01FFCB0E72C4802F00FFB3B7861
:102240000BB1FEF7C7F9FFF7A5FAFFF71BFB304B01
:1022500001221A70F8BD642A9FD1B2782A4996F8F3
:1022600004E0307BC2EB421201EB820301F822E072
:102270007279F1795A70327A96F806E0DC71D97089
:10228000747AB17A1A717F28F27A83F802E05C716D
:10229000997183F87420B6D101233B70B3E7B1780C
:1022A000194CF07B96F804E0C1EB4111013A8B0028
:1022B00002EB820203EB8202A3187279B479F179FE
:1022C0005A74327A9C74D974747AB17A1A75F27A23
:1022D0005C759975347B717B1A767F28B27B83F8A5
:1022E00010E05C76D961DA758DD1D5E748A9FF1F7A
:1022F00098AAFF1FE0B2FF1FE8B2FF1F4CBD00000D
:102300004CA3FF1F5CA3FF1F70A3FF1F58BD00005D
:10231000E0ABFF1F38B5364803F0B2FC354803F098
:10232000AFFC334803F0DCFC20B3642004F090FFE2
:10233000304803F0A5FC2F4803F0D2FC054678BBDB
:102340002D4C2378082B32D80133DBB223702B4A73
:10235000C3EB431302EB83039B7C052B24D0FFF7D5
:1023600019FAFFF78FFA264B01221A70BDE83840A0
:10237000FEF730B91F4803F0B3FC00B938BD642044
:1023800004F066FF1A4803F07BFC194803F0A8FC30
:1023900030B9194D2C78D4B1631EDBB22B70D6E75F
:1023A000BDE83840FFF7DABEFFF738FADBE7FF2178
:1023B000162004F035FE642004F04AFF114B402241
:1023C0001A602946162004F02BFE2378BFE7FF2170
:1023D000162004F025FE642004F03AFF094B402249
:1023E0001A602146162004F01BFE2B78AFE700BFD1
:1023F0004CA3FF1F5CA3FF1F6CA3FF1F70A3FF1F55
:10240000E0ABFF1FC8F00F402DE9F043022183B07D
:10241000084604F017FF02210E2004F013FF0221EA
:102420000F2004F00FFF0121152004F00BFF012104
:10243000162004F007FF0121172004F003FF0021FC
:10244000162004F0EDFD0021172004F0E9FD0A211B
:102450007B487C4C7C4E7D4D7D4FDFF8248203F021
:1024600049FC7C4B7C4A22634FF08049C3F80090C2
:1024700047F6C26323622046002102F063FE204635
:10248000764902F089FEB06C754A0368C2F8009084
:10249000DB6947F6122100249847A86C86F84C4067
:1024A000032386F84E4086F84D4086F8654086F84E
:1024B000674086F8684086F864300368B4654FF674
:1024C000FF79DB69746586F8E94086F86640C6F8EE
:1024D0005C90C6F8609047F612219847B86C85F872
:1024E0004C40032385F84E4085F84D4085F8654003
:1024F00085F8674085F8684085F864300368AC6506
:102500006C65C5F85C90C5F8609085F8E94085F881
:102510006640DB6947F61221984796F8641095F8F3
:10252000643097F86420C7F85C9001F0FE01C7F8AA
:10253000609064F347014FF0010987F84C4087F839
:102540004E4087F84D40BC657C6503F0FE03CDF836
:10255000009002F0FE0286F86410424EDFF824E19B
:10256000C6F800E064F3470364F34702022185F8EC
:10257000643087F864204B463C2287F8E94087F8AE
:10258000664087F8654087F8674087F868404046AE
:1025900001F088FF052004F05BFE404602F05EF982
:1025A0004046022101F02AFD4946404601F02CFD3B
:1025B00022462146404601F01DFD09222A49404697
:1025C00004F064F8404604F09DF8404601F026FD12
:1025D0000546404601F026FD113800B211222B4677
:1025E00021468DE80102404601F0F0F9404602F034
:1025F00041FA642004F02CFEFF21162004F010FDA7
:102600001A4B40251D60C82004F022FE184B2146BD
:102610001D60162004F004FD164803F031FB164837
:1026200003F02EFB154B1C70FEF70CF8FFF772FE43
:10263000FEF736F903B0BDE8F043FFF7ABB800BFD3
:102640000082FF1FA0AAFF1F5CA8FF1FDCAAFF1FBC
:10265000A4A9FF1F88E100E082902C00CDCC0C3FA4
:1026600008E100E034B2FF1F68BD0000C4F00F4075
:10267000C8F00F404CA3FF1F5CA3FF1F6CA3FF1FFC
:1026800048A9FF1F710400002DE9F04F834CDFF8CB
:102690005C8294F84C500023102D89B088F80030EB
:1026A00040F22C817E4FDFF838A27E4E7E4D96F8A8
:1026B0004CB0DFF8F091BBF1100F40F26C8195F84F
:1026C0004CB0DFF8E491BBF1100F40F2998100208B
:1026D00007F02AF8D0B1754B754A19787548764BD2
:1026E00012781B780078F02900F0CE81734C012815
:1026F000247800F01083C0F0DF81022803D1009419
:102700006948FEF78FF8012388F80030DFF8E09180
:10271000FFF700FEFEF7C4F899F81030012B40F2E5
:102720006A8272B6D9F80C6062B69AF80040644AC0
:1027300065012B1B07EB830316609B7C052B0AD0DE
:10274000604B1B68B342C0F28C80002EC0F29280B6
:102750009AF8004065012B1B07EB8303DFF894B167
:102760009B6FB34235D05849DBF8002009685748C1
:102770000492049A0291026002985549101A1A288C
:1027800008605AD953490868DFF86CE1F11A00FB78
:1027900001F04D49CEF80000B3420A6075DA494BAA
:1027A0001B683044984274DA2C1B07EB8404A06742
:1027B00072B6C9F80C0062B69AF8004065012C1B8D
:1027C00007EB8404A37C052B01D0FFF75BF8FFF730
:1027D00025F998F8003033BB3F490B68DBF800203F
:1027E0000692069AD21A0F2A03D93C4B40221A604D
:1027F0000B68DBF800200792079AD31AC82B0BD975
:102800009AF80030364E264CC3EB431307EB830790
:10281000BB7C052B00F022814FF49663013BFDD178
:1028200009B0BDE8F08F2F4B2B4940221A60DBF82E
:1028300000300593059B0B60D0E7C0F11B000392AD
:10284000029307F0A1FF284907F0F6FF4FF07E51F1
:1028500007F0EAFE08F0B6F91E49039A0860029BE9
:1028600092E7136072B6C9F80C3062B61668002E93
:10287000BFF66EAF0023136072B6C9F80C3062B6B3
:102880009AF800401668650165E702DD30440028CB
:102890008ADC2B1B07EB83039E6790E75CA8FF1F76
:1028A00070A3FF1FDCAAFF1FA4A9FF1FE0B2FF1F38
:1028B000E4B2FF1FE6B2FF1FE5B2FF1FE7B2FF1F42
:1028C0002097FF1F2497FF1FE4ABFF1FD8AAFF1F0D
:1028D00038A3FF1F2897FF1FC8ABFF1FC8F00F408A
:1028E0006CA3FF1FC4F00F409A99993EE0ABFF1F05
:1028F000CCABFF1FB8AFFF1F2C97FF1F2046FEF782
:10290000EBFA00283FF4CEAE94F86630902B00F03E
:10291000EE8083F08003602B40F2EF80D54E30468E
:10292000FEF762FC29463046FEF718FD94F8665023
:1029300094F865300293F02D94F8679094F868B09D
:1029400000F0FC81EF2D00F21C81280600F1CA8204
:10295000DFF838A3C84F06F0D1FE9AF80030C3EB79
:10296000431307EB830393F87430D90700F1908188
:102970009A0700F1A0815E0700F1B081BF4EC04D03
:1029800096F84CB0DFF8F4920123BBF1100F88F8F1
:1029900000303FF694AE4846FEF79EFA00283FF41A
:1029A0008EAE99F86630902B00F08B8083F0800318
:1029B000602B40F28E80DFF8C4924846FEF714FC8C
:1029C00059464846FEF7CAFC96F8660096F8673006
:1029D00096F86810F02800F0A381EF2800F2B58087
:1029E000020600F1B38206F089FE95F84CB0DFF8DC
:1029F00090920123BBF1100F88F800303FF667AECC
:102A00004846FEF769FA00283FF461AE99F866304F
:102A1000902B00F0848083F08003602B40F287804D
:102A2000DFF85C924846FEF7DFFB59464846FEF762
:102A300095FC95F8660095F8673095F86810F028D1
:102A400000F07581EF2800F2BA80020600F1628280
:102A500006F054FE012388F8003038E697F820305D
:102A6000002B3FF4D9AE874B00251D60FEF7D6FF43
:102A70003378C3EB431304EB83032946172083F811
:102A8000205004F0CDFAC7E6012802EB032200F043
:102A90000D82C0F0198202287FF435AE002A3FF47F
:102AA00032AE794E9419A86C16F8011B03681B68A6
:102AB0009847A642F7D126E600946E48FDF7B2FE8D
:102AC00021E699F86830002B40F07B81802389F85B
:102AD000663096F865305B453FF46DAFBBF1000F93
:102AE0003FF469AF59466548FEF738FCE7E594F8CE
:102AF000683013B9802384F8663094F865309D42BD
:102B00003FF40CAF002D3FF409AF294659485A4F06
:102B1000DFF878A1594E5A4DFEF720FCC7E599F829
:102B20006830002B40F04A81802389F8663095F8A0
:102B300065309B453FF474AFBBF1000F3FF470AFBD
:102B400059464F48FEF70AFCC1E5F72800F2D1804C
:102B5000F62800F0CE8000F0FD02F12A00F092810C
:102B6000F2287FF440AF18040A0602F0FE4300F496
:102B7000FE00184340F4724040F0130006F028FDB8
:102B800031E7F72D00F2C180F62D00F0BE8005F090
:102B9000FD03F12B00F06B81F22D7FF4D9AE4FEAEB
:102BA00009404FEA0B6303F0FE4300F4FE001843B4
:102BB00040F4724040F0030006F00AFDC8E6F72832
:102BC00000F29D80F62800F09A8000F0FD02F12AC4
:102BD00000F06281F2287FF43BAF18040A0602F08D
:102BE000FE4300F4FE00184340F4724040F023001E
:102BF00006F0EEFC2CE772B6D9F80030D9F80410D4
:102C00001A78087899F8091099F80830084202EA09
:102C1000030200F0C98099F80A3003F003030AB1F7
:102C200043F0040343F008039A10013B89F80A209B
:102C30000D2B3FF677AD01A252F823F0ED2D0000E9
:102C4000E12D0000D52D0000E12D0000252700001A
:102C5000C92D0000ED2D0000ED2D0000C92D000054
:102C600025270000E12D0000D52D0000E12D0000FA
:102C7000ED2D00005CA8FF1F70A3FF1FDCAAFF1F43
:102C8000A4A9FF1F2C97FF1FE8B2FF1F6CA3FF1F13
:102C9000029B00934A465B462946BA48FDF7C2FDAF
:102CA0009AF80030C3EB431307EB830393F87430B7
:102CB0009A077FF560AE029B00934A465B46294621
:102CC000B148FDF7AFFD9AF80030C3EB431307EBB3
:102CD000830393F874305E077FF550AE029B009338
:102CE00029465B464A46A948A74EA84DFDF79AFDDE
:102CF00046E6000240F01F0006F06AFC73E60002A0
:102D000040F02F0006F064FCA2E6280240F00F001D
:102D100006F05EFC1CE600949B48FDF783FDF2E4A0
:102D200003EB012101229A4806F0A0FC5BE603EBCD
:102D300001210222964806F099FC89E609EB0B294D
:102D4000DFF85CA2934F4946002206F1690006F0C5
:102D50008DFC06F0D3FC9AF80030C3EB431307EB6D
:102D6000830393F87430DD0746D4980762D459077B
:102D70007FF504AE844EB9F1000F3FF400AE834DF1
:102D8000854B02964FF0000B2E464D469946B06C8F
:102D900019F8011F03680BF1010B1B6898475D458B
:102DA000F5D83546029EEBE599F80A3003F00303A7
:102DB000002A3FF439AF43F0040335E799F8653052
:102DC000B7E699F8653086E6D9F80C60023EC9F896
:102DD0000C60A9E4D9F80C600236C9F80C60A3E4D1
:102DE000D9F80C60013EC9F80C609DE4D9F80C607C
:102DF0000136C9F80C6097E4B9F1000FB5D009F1BC
:102E0000680535446836A06C16F8011F03681B6816
:102E10009847B542F7D19AF80030C3EB431307EB5C
:102E2000830393F87430990708D45B077FF5A6AD48
:102E3000554EA4E7B9F1000F3FF4A0ADDFF858B14B
:102E4000514E0025B06C1BF8011F036801351B684B
:102E50009847A945F6D89AF80030C3EB431307EB1F
:102E6000830393F874305A077FF589AD87E728020A
:102E70004FEA094303F4FE0340F00200184306F052
:102E8000A7FB65E51904000240F0120301F4FE00FF
:102E9000184306F09DFBA6E51904000240F022034A
:102EA00001F4FE00184306F093FBD1E5002A3FF43D
:102EB0002AAC3A4D5419B06C15F8011B03681B6815
:102EC0009847A542F7D11EE4002A3FF41CAC334ECC
:102ED0009519A06C16F8011B03681B689847B5424A
:102EE000F7D110E405F0F00002024FEA094342EA8C
:102EF000101003F4FE031843029B4FEA0B62013BE0
:102F000002F0FE421B02104303F47063184306F004
:102F10005FFB1DE500F0F00099F865204FEA201CEA
:102F20004FEA034E4CEA0020531E0EF4FE0E0A0632
:102F300040F0200002F0FE4240EA0E001B0203F4C3
:102F400070631043184306F043FB81E500F0F00086
:102F500099F865204FEA201C4FEA034E4CEA002006
:102F6000531E0EF4FE0E0A0640F0100002F0FE4260
:102F700040EA0E001B0203F470631043184306F08E
:102F800027FB30E55CA8FF1FDCAAFF1FA4A9FF1FD9
:102F9000C5A8FF1F70A3FF1FC4A8FF1FE8B2FF1F33
:102FA0006CA3FF1F10B4047F4160022CC26002D0EA
:102FB00010BC03F0BDB8836810BC1847F0B4464B92
:102FC000464A186BDC6A01791170454922790A700A
:102FD0009A6A00790870002A46D05968C9688A42FE
:102FE0003ED82168CC8B240402F1FF3065D4C0F3B5
:102FF0000E00C883C88B80B2C882196B0968C88B61
:10300000000452D4C2F30E00C883C88B002480B2DF
:1030100012F1FF32C88218BF01229C62D96A2E4881
:1030200009680D6800F12404A54236D00068C46820
:1030300014F0804F0C680D6815BF24882478023581
:10304000013544F000440D604463196B254B097948
:103050001970214912B1CA6A12791A70F0BC70470E
:10306000521A9A620122D9E7586B196805681E4CFA
:103070000A63CC62CC682D681C4E24F08044032780
:10308000B542CC6083F825701FD1037F4260022BCC
:10309000C2601ED0F0BC03F04BB8016890F8240069
:1030A000CC6840F000404863CFE7CC8BC2F3080007
:1030B00004F47E442043C883A7E7CC8BC0F3080008
:1030C00004F47E442043C88394E72B461146F0BCA9
:1030D00018478368F0BC18474897FF1F1F800040BF
:1030E0001C8000401B80004000000FFFA52F000047
:1030F00090E80C00F0B41C6859682568164F174E0C
:1031000029432160164D17491760D660156111607B
:10311000417A154A5C180A3194F8244053F821503A
:1031200002EBC40149680D60017A5C1803EB810170
:10313000247ECD6902EBC40149680D60817A58187C
:1031400003EB810390F83000596B02EBC002F0BC36
:1031500053681960704700BF01401F00011000381C
:103160000110007800001F8040CC00000020704754
:1031700090F8392090F83800101A704790F83830DD
:1031800090F839209A4205D95A1C034480F8382017
:10319000187E70474FF0FF30704700BF90F838300E
:1031A00090F839209A4286BF1B18187E4FF0FF30E6
:1031B000704700BF704700BF38B50546B0F85E00E5
:1031C00090B195F85D301446C3F1210294420CD8B9
:1031D00005F13B001844224603F0CAFC95F85D3027
:1031E000234485F85D30204638BD012014462871FF
:1031F000EEE700BFB0F85E306BB190F85D30202B89
:1032000007D8C218013380F85D30012082F83B10E6
:103210007047012303710020704700BF00234269FB
:1032200080F8383080F8393080F85C3080F85D30D4
:1032300080F85E3080F85F3006CA30B40D680469EB
:1032400043662A4383660A60A370426990F861303E
:103250001649146813441D7A5B7B01EBC5051B02FC
:103260006D6803F4E06343F064032B6090F8623010
:1032700013449D7CDB7D01EBC5011B02496803F40F
:10328000E06343F064030B6021685368194205D082
:10329000036928225A70036903229A710369202264
:1032A0005A71036980229A7030BC704740CC00008C
:1032B00043690CCB12681A420CD0094B99420AD9C7
:1032C000084B9942036994BF19220A225A70036974
:1032D00003229A717047036928225A70F7E700BFEA
:1032E0007F1A06003F420F0010B50269D378DBB2A7
:1032F000D90604463DD510215806D17038D503F0C3
:10330000040303F0FF02002B51D03D49626E0023FD
:103310000B7084F85D30002A5BD0904794F85D30E4
:10332000002B56D02369D0229A70236994F83B2051
:103330001A712369012284F85C200222DA7010BD20
:10334000304B84F860009C424AD02F4B9C4252D0B4
:1033500094F8391013791F29DBB207D82848007870
:1033600020B16018013184F8391003760223D3703C
:1033700010BD5906C3D4917801F0100101F0FF008F
:103380000029DDD013F001031ED194F85C1094F8ED
:103390005D00884281BF4B1C091984F85C3091F8AC
:1033A0003B3013712369D0229A702269DEE72369CA
:1033B00084F83920C0229A702369114A19790121B1
:1033C00011700222DA7010BDC02393702269137944
:1033D000CCE70122002384F85D2084F83B30A1E78C
:1033E000626994F86130094913440322187A03F0A2
:1033F00045FD2269ACE7626994F861300449F3E75E
:10340000E8ABFF1F8097FF1FEC97FF1F7134000090
:103410007D3400000369DB7803F0200373B190F87A
:1034200060300133DBB2012B80F860301AD9426979
:1034300090F861301344187A03F09CBD70B542696E
:1034400003F0FF0590F8613013440446187A03F046
:1034500091FDA36E5BB184F8385094F83900BDE853
:103460007040184790F85F30002BE0D0704770BD77
:103470000148FFF7CFBF00BF8097FF1F0148FFF74C
:10348000C9BF00BFEC97FF1F2DE9F047364FDFF8AB
:10349000DC903B68026982B006460093DDF800804C
:1034A00000217825D3789B065AD53B680193019B70
:1034B000C8EB03030F2BF5D949B1102BF2D0002034
:1034C0009070336980229A7002B0BDE8F08772690B
:1034D00096F8613013440521187A03F0B3FE72693F
:1034E00096F861301344012193F812A0504603F07E
:1034F000A9FE09240021504603F090FE2B46013B13
:10350000FDD10121504603F089FE2B46013BFDD140
:10351000013CEFD1706996F861100144F0220C7AF9
:103520004B7B09EBC4011B02496803F4E06343F0E1
:1035300064030B6096F862300344997CDB7D09EBF1
:10354000C1011B02496803F4E06343F064030B60AC
:10355000013AFDD13269D3789B064FF00101A4D422
:10356000012002B0BDE8F087B8AFFF1F40CC0000DB
:10357000F0B503691222DA700269937803F0200330
:1035800085B004460D46002B5ED0B42393703C49B1
:1035900022690B680093009E05E00B680193019B74
:1035A0009B1B042B42D8D37803F0200303F0FF00C9
:1035B000002BF2D094F85D30002B31D04FF0000E8C
:1035C0004FF0020C04EB0E0393F83B3013710B68C1
:1035D0000393039F206907E09B060DD50B680293B8
:1035E000029BDB1B052B28D8C378DBB203F0020259
:1035F00002F0FF06002AEFD080F803C02669F378B6
:10360000DBB2DF0632462DD49F062BD5DB0731D443
:103610000EF1010E94F85D305FFA8EFE7345D1D83D
:1036200000201DBB002384F85E3004E09070236905
:1036300080229A70042005B0F0BD86702369802234
:1036400004209A7005B0F0BD03F0FF06FFF71CFFE1
:1036500010B9042005B0F0BD236984F85F60B02282
:103660009A7094E78023B3700420DAE726698023F8
:10367000B370D7E7BEF1000F0CBF02200320F6E7BE
:10368000B8AFFF1F0148FFF72FBE00BF8097FF1F95
:103690000148FFF729BE00BFEC97FF1F704700BF2E
:1036A0002DE9F04F85B09946BDF93870BDF83CA0C2
:1036B000BB1AC1EB090B002BB8BF5B42BBF1000F7B
:1036C000B8BFCBF1000B5B450D4616460093804614
:1036D00048DC4D453A4633464CDC194613460A460B
:1036E000C5EB09019B1A89B2002B0CB2B8BF5B4233
:1036F00004EBD474BE42ACBF4FF0FF3201224D4503
:10370000039102924FEA640429DC9BB201930DE01D
:10371000D8F80070BF69B847019BE41AA3B21CB285
:103720000135002C2DB211DBA94518DB009B5B4550
:103730002A46534631464046EADCD8F80020534634
:103740009769294632464046B847E5E7029A16444B
:10375000039AA94502EB030436B224B2E6DA05B0B7
:10376000BDE8F08F4A462B46B94635464D451746CB
:103770001E46B2DD304629463E464D46074689463E
:10378000AEE700BF10B404682469A44610BC6047CB
:1037900030B40468BDF808500295A46BA44630BC50
:1037A000604700BF30B40468BDF808500295E46B70
:1037B000A44630BC604700BF70B40468BDF90C601B
:1037C000BDF8105003960495246CA44670BC604765
:1037D000704700BF10B582B0B0F90C2001910168AC
:1037E000009200220C6CB0F90A301146A04702B0DA
:1037F00010BD00BF704700BF01F003010129C17572
:1038000006D0032904D0C28803894281838170478E
:103810000289C38842818381704700BF2DE9F0414E
:103820000568134E6F6986B0B7420446BDF8308014
:1038300010D1013B13441BB20093CDF804800B461A
:10384000AD6A2046A8472368DB6AB3420AD106B0B6
:10385000BDE8F081059304920391B84703A9256858
:103860000EC9E6E7204606B0BDE8F041184700BFA4
:10387000D13700002DE9F0410568124E6F6986B01E
:10388000B7420446BDF830800FD1013BCDF804802B
:103890000B4400921BB2AD6A2046A8472368DB6A3E
:1038A000B3420AD106B0BDE8F081059304920391BA
:1038B000B84703A925680EC9E7E7204606B0BDE86A
:1038C000F0411847D13700002DE9F04F0568DFF8C7
:1038D00058B06F6985B05F450646BDF93890BDF8B0
:1038E0003CA00C46904615D11F19BC420CDACDF80D
:1038F00000A0214601342D6A4B464246304624B290
:10390000A847BC423568F2DBEB6A5B4507D105B0DE
:10391000BDE8F08F0393B8473568039BE4E7304672
:1039200005B0BDE8F04F1847D13700002DE9F0434E
:1039300087B099420546BDF93840BDF83C6025D0B6
:10394000A24212D00768DFF88080D7F81490C145F2
:1039500032D18DE850002846BC6AA0472B68DB6A4C
:10396000434524D107B0BDE8F083994202DD084603
:103970001946034628680E96C46B01335B1A1BB2C6
:103980002846A44607B0BDE8F0436047A24202DDE6
:10399000134622461C4628680E96631C846B9B1AAD
:1039A0001BB22846A44607B0BDE8F043604728464E
:1039B00007B0BDE8F0431847059304920391C84748
:1039C00003A92F680EC9C4E7D13700002DE9F04FD5
:1039D000D0F800E0DFF89090DEF814B083B0CB456B
:1039E0000446BDF93080BDF834A00D4617461E468A
:1039F00031D1CDF800A0DEF824B0294633463A464E
:103A00002046D8472368CDF800A008F1FF323A4499
:103A1000D3F824B0294612B233462046D84723684B
:103A2000CDF800A02946D3F820B03A4643462046B8
:103A3000D8472068CDF800A0711E29444346056A86
:103A400009B23A462046A8472368DB6A4B4506D1AF
:103A500003B0BDE8F08FD847D4F800E0C9E72046AE
:103A600003B0BDE8F04F1847D1370000F0B4002490
:103A700001264FF6FF75094F07600471C475C481B4
:103A800004824476C4618675067685824582C1804B
:103A9000028141818281F0BC704700BF58BE0000A6
:103AA0002DE9F04F87B01746BDF9404000912546FB
:103AB000E91D059344BF2B4603F10E010268BDF8D2
:103AC000486053690294C91003912B49BDF94440E1
:103AD00001968B42824645D1002C3CDD029B3C4442
:103AE0005E1EB6B24FF0000923B2049301364D4674
:103AF000029B002B28DD059B002403EB090806E050
:103B0000EDB22B0604F1010411D4A6421CD0A1B2DF
:103B100011F0070F23B24FEA4505F1D1002BB8BFD2
:103B20000733DB10013418F803502B06EDD5009B4A
:103B3000D2F818B019443A4609B2019B5046D8470A
:103B4000A642DAF80020E2D1039B01379944049B96
:103B50003FB2BB42CCD1D36A074A934206D107B0E9
:103B6000BDE8F08F9847DAF80020B5E7504607B077
:103B7000BDE8F04F184700BFD137000070B4BDF961
:103B80000C60BDF91050BDF81440039604950594DF
:103B900070BCFFF785BF00BF2DE9F04F93B0904692
:103BA0000591C1691090BDF870000790BDF8749040
:103BB0009DF878A00493002900F0CD800A7A0AC904
:103BC000894604998A1AD2B203EBC203BAF1010FF3
:103BD000DA780B9293F905201E8893F802B00F92C1
:103BE00093F9064079D913B2099323B20C93109B31
:103BF0001A68A94B1193194653698B4240F0A6806D
:103C00000B9B002B55D01FFA88F300210D93C8465B
:103C10002344DDF8409006910E930F460C46BBF10D
:103C2000000F3FD0BDF818100C9B03971FFA8AF0C5
:103C3000CB1813FB00F304900E9801440D98034435
:103C400009B21BB20A910893002505E00135EBB2D9
:103C500064009B45E4B222D9039B2B44590703D14E
:103C6000731C18F806409EB22306EFD5099BBDF8D9
:103C70001000E91811FB00F10598BAF1010F0FFAD5
:103C80008AF301441CD0079801900093D26909B2CD
:103C900017464846089AB847D9F80020D6E7039F48
:103CA0005F44FFB2069B0B9901330693DBB2994246
:103CB000B5D8D36A119A934243D113B0BDE8F08FBF
:103CC0000F9B191893690A9A29441F4609B2079B4A
:103CD0004846B847D9F80020B8E700230C93099369
:103CE00085E70A9A0D9B0132013B52B213F0FF03A4
:103CF0000A920D936FD1DDF81890079BDDF83C8098
:103D0000DDF820A04B4517D0BAF1010F00F0C880B4
:103D10000B9A109DCDF804900BEB8B014FEACB036F
:103D20000A4400931146DEF81C405346424609B24D
:103D30002846A047D5F800E0DEF82C30119A9342CF
:103D4000BBD0109813B0BDE8F04F1847109D28461F
:103D500098472A6854E7109A0598B2F90A308342C6
:103D6000ABDDB2F90C304345A7DD062313FB0A0394
:103D7000002BA2DD08EBCA03002B9EDD537E2BB97E
:103D8000049BAF2B02D90133DBB20493109BD3F811
:103D900000E0414B11931A46DEF81430934240F094
:103DA0008E801FFA88F30E9308339BB2BDF814205F
:103DB000059305230D9300230A93CDF83C800FFA59
:103DC0008AF3DDF84080CDF818900B921FFA8AFB39
:103DD000CDF820A099460A9ABDF810000B9C0E9DC4
:103DE0000523194611FB00232C481146C75C039795
:103DF00002FB0B4214FA81F312B21BB209920C932C
:103E00002C462E461CE0089B0999012B2AB24B46F2
:103E100040462DD0079F0197CDF80090DEF81CA0FA
:103E2000D047D8F800E0039B5B0801340393059B5F
:103E3000A4B25D445E44A342ADB2B6B23FF451AF0A
:103E4000039BD807DFD4079B069A9342EBD0089BCD
:103E5000012B16D0069B0193CDF80090DEF81CA034
:103E600009994B4632B24046D047D8F800E0DAE72D
:103E7000DEF818A0079B0C9922B2D047D8F800E0D2
:103E8000D1E7DEF818A00C991346404622B2D0477D
:103E9000D8F800E0C7E700BFD1370000A8BE000097
:103EA0000B99109DCDF800900531DEF8204009B245
:103EB000424608232846A047D5F800E03CE7109C7E
:103EC00020469847D4F800E06BE700BFF0B5C3691F
:103ED00085B004462BB30A2968D00D294AD01A7A36
:103EE000914247D3587A884244D35D688A1A05EBD9
:103EF000C205AA78002A50D0E87800284DD0207E4C
:103F000000283AD095F905E0B4F90E00A67DB4F981
:103F10000A70724406FB0202BA4262DCB4F9102055
:103F200030E00A2956D00D2924D0027E002A4BD039
:103F3000B0F90E00A57DB4F90A60062212FB050255
:103F4000B2423EDD228AE38102EBC50212B218467C
:103F50002282A78A668A02950B468DE8C000014638
:103F60002046FFF719FEA37DE28903EB430302EB32
:103F70004303E381012005B0F0BDA67DB4F90E0036
:103F8000B4F91020B4F814E0678A02960B468DE865
:103F9000804001462046FFF7FFFD2979E389A27D95
:103FA000012001FB0233E38105B0F0BD0022C28194
:103FB0009A7A817D038A01FB02330382012005B0D6
:103FC000F0BDB4F91020C4E7857DB4F91020B0F934
:103FD0000E00BEE7028A817DC38102EBC10303822A
:103FE000C8E70020E0819B7A228A03FB062212B2F6
:103FF0002282C7E7C1810282704700BF002908BF43
:1040000001218175704700BF81824182704700BFE6
:1040100041828282704700BFC07D7047B0F90A00BC
:10402000704700BFB0F90C00704700BFF0B50C1E20
:10403000BDF8146034DBB0F906701919B942C4BF79
:104040003B1B1BB2002BA6461CDD002A1146B8BF45
:10405000D11D02F00705CC10826A012007FB04E1A4
:10406000A840012E0A44C0B21ED00CD3022E09D1A2
:10407000013B12FA83F3013A12F8011F41409A42C0
:104080001170F9D1F0BDC043013B12FA83F3C0B205
:10409000013A12F8011F014093421170F9D1F0BDAD
:1040A00023441BB20024C6E7013B12FA83F3013A12
:1040B00012F8011F01439A421170F9D1F0BD00BFFF
:1040C000F8B50D1E0EDB14461F460646FFF7A6FF89
:1040D000A84207DD002C05DB3046FFF7A3FFA04216
:1040E00001DCF8BDF8BD3046FFF796FF022853D03B
:1040F00003284BD0012806D16540F3886C40654009
:10410000013B5D1B2DB2012F03D02AD3022F14D007
:10411000F8BD002C2246B6F90630B06AB8BFE21DE1
:1041200042F3CF0202FB035504F00704435D012173
:1041300001FA04F41C434455F8BD002C2246B6F99C
:104140000630B06AB8BFE21D42F3CF0202FB03554E
:1041500004F00704435D012101FA04F45C40445576
:10416000F8BD002C2246B6F90630B06AB8BFE21D91
:1041700042F3CF0202FB035504F00704435D012123
:1041800001FA04F423EA04044455F8BD3389013BE1
:10419000591B25460CB2B6E7F18832890139013A3C
:1041A0004D1B141B2DB224B2ADE700BF70B5202209
:1041B00004460E468021FFF759FCFF2300220A4DDA
:1041C0000A480B4984F8336084F82F3084F8303083
:1041D00084F8313084F83230606225606165226293
:1041E000A262204670BD00BFC8C300008097FF1FB9
:1041F0000000023810B50446806A034B236008B102
:1042000006F048FD204610BDC8C30000F8B5436A5B
:10421000DBB190F82C200125AA4083F83B2083F8DD
:104220005E5083F85D500446406A03680E461B6882
:1042300000219847606A036831461B689847294601
:10424000606ABDE8F840FFF793B9C26BC56C1368AC
:10425000046A23EA050313604CB122684FF000435F
:10426000D3625163D36A002BFCDA936BF8BD836B86
:10427000466B0825802410E03768426C3A43326070
:104280001F68826C3A431A601A68876C013D22EA03
:1042900007024FEA54041A6007D02142ECD1326879
:1042A000476C22EA07023260EAE7F8BD70B50446BF
:1042B000406A0D4600282BD03049FEF7F9FF002D4B
:1042C00020460CBFA621A721FFF7A0FF606A20B1FE
:1042D000A16DBDE87040FEF7EBBF216C226D086850
:1042E000236A02430A6093B1DA7A82B1D00703D518
:1042F000234A99691160DA7A910703D5214AD9696D
:104300001160DA7A520702D51F4A1B6A136070BD2A
:10431000236A002B2BD0D97A626DE1B172B6D97ABB
:10432000CE0706D51948D968066831409961016001
:10433000D97A880706D51648196906683140D961C7
:104340000160D97A4E0705D512485969066831408F
:104350001962016062B61B68D968914207D00E48A5
:1043600018600E49DA6042F0804018611960226CD2
:10437000216D136823EA01031360A0E740420F0098
:1043800000E100E004E100E008E100E080E100E09D
:1043900084E100E088E100E001403F0000003F8050
:1043A000436A2DE9F04105460E469046002B3ED06B
:1043B00090F82C100124A14083F83B1083F85E4054
:1043C00083F85D40406A036800211B6808F1FF37ED
:1043D0009847FFB2B8F1000F23D03744A046013E02
:1043E000686A16F8011F03681B6898470134B742D2
:1043F000E4B216D0202CF3D10121686AFFF7B8F897
:1044000095F82C206B6A520083F83B2083F85E807D
:1044100083F85D80686A036800211B68984701245F
:10442000DEE7686A0121BDE8F041FFF7A1B8C26B81
:10443000C16C136823EA010306EB080413604FF014
:104440000048A6420ED02B6A16F801EB63B11A6839
:10445000C2F82C80C2F834E0D36A002BFCDAA64202
:10446000936BF0D1BDE8F081AB6BD5F834C0082078
:104470008021DCF800206F6C1EEA010F14BF3A4364
:10448000BA43CCF800201A68AF6C3A431A601A6835
:10449000AF6C013822EA07024FEA51011A60E8D1F5
:1044A000CFE700BF2DE9F041044686B0806A9DF851
:1044B00030801E460F461546B4F90830002800F03B
:1044C0004281DA1D48BF03F10E02B4F90630D21062
:1044D00003FB02F2002106F001FFB4F90820202AB4
:1044E00000F39280B4F90610A34B0120203A7339EF
:1044F00002EBD27201EBD1714FF0200E02907320CB
:104500008DE8014042F34F0241F34F012046FFF78F
:1045100035FB606A84F82D70002800F04F81002D73
:1045200040F08A80B4F90830202B14BF3D253C258B
:1045300084F82C50B8F1000F40F0858006B394F950
:104540003300002818DBC0B2012102F07BFE0121FC
:1045500094F8330002F062FE012002F079FE00219F
:1045600094F8330002F05AFE0A2002F071FE012195
:1045700094F8330002F052FE606A002800F0828056
:104580007E49FEF795FE04227D492046FFF708FF8D
:10459000217A0139C9B22046FFF738FE7949042251
:1045A0002046FFF7FDFE94F92D30012B14BF142196
:1045B00010212046FFF72AFE042273492046FFF708
:1045C000EFFEB4F90630802B00F09280602B00F0F3
:1045D000A680D9212046FFF719FE94F92D30012B32
:1045E00014BFF12122212046FFF710FE20460622AB
:1045F0006649FFF7D5FE606A50B3A16DFEF758FE1D
:10460000012006B0BDE8F081B4F90610604B01202E
:10461000403A52394FF0400E029002EBD2725220D3
:1046200001EBD1718DE8014042F34F0241F34F019C
:104630002046FFF7A3FA6CE76DB284F82C50B8F16E
:10464000000F3FF47BAFFEF7E9FD002E94D076E734
:10465000216C226D0868236A02430A6073B1DA7A1A
:1046600062B1D00703D54B4A99691160DA7A910794
:104670007CD4520702D5484A1B6A1360012006B059
:10468000BDE8F081236A002B2BD0D97A626DE1B1AD
:1046900072B6D97ACF0706D54048D968056829404F
:1046A00099610160D97A8E0706D53D481969056878
:1046B0002940D9610160D97A4D0705D53948596932
:1046C000056829401962016062B61B68D968914289
:1046D00007D0354818603549DA6042F080401861EB
:1046E0001960226C216D136823EA010313604AE705
:1046F000B4F90830202B00F08880402B7FF469AF9C
:104700002B4920460322FFF74BFE94F92D30012B55
:1047100014BFCF219F212046FFF778FD59E7B4F958
:104720000830102B7FF455AF224920460322FFF7B3
:1047300037FE94F92D30012B14BFAF2110212046F4
:10474000FFF764FD45E7DA1D48BF03F10E02B4F937
:104750000630D21003FB02F21046059206F092FAE0
:10476000A06200283FF44DAF059AB3E6124AD9691A
:104770001160DA7A7DE700BF20C4000040420F00DC
:1047800000C6000004C6000008C600000CC60000F9
:1047900014C6000000E100E008E100E080E100E074
:1047A00084E100E088E100E001403F0000003F803C
:1047B0001CC40000D4C8000004E100E0012194F80A
:1047C0003100244F02F03EFD94F83200012102F046
:1047D00039FD94F9312094F9323057F83220E263F0
:1047E00057F83330206A23640125E56425651A688B
:1047F0002A431A6078B1B8F1000F3FF426AFFEF7F4
:1048000077FC002E3FF4B8AE99E604221249204608
:10481000FFF7C6FDDDE6294694F82F0002F012FDF1
:10482000294694F8300002F00DFD94F92F2094F9F8
:10483000303057F83220626357F833306564A5642E
:104840001A68A36322F001021A60002E3FF494AEAE
:1048500075E600BF40CC000018C40000B0F9082085
:10486000D31D48BF02F10E03B0F90620806ADB10A9
:1048700002FB03F2002106F031BD00BFF0B50029B4
:10488000BDF814502EDBB0F90660B1422ADA002AD6
:1048900059DBB0F9087014461C44BC42C4BFBB1AB3
:1048A0001BB2002B1EDDD2B2D408D0F828E016FBD4
:1048B000041112F00702DBB20EEB010421D0C2F1A9
:1048C0000807FAB2374F9342BF5C0CD2C3EB020C1D
:1048D000FF2646FA0CF6012D07EA06073FD005D35E
:1048E000022D36D0F0BD012D39D030D21EF8016036
:1048F00026EA07070EF801709342F3D3B0F90610C9
:104900000C449A1AD2B2072A10D9022D36D0002DA3
:1049100014BFFF26002613462670083BB0F9061088
:10492000DBB2072B0C44F7D802F00702002AD9D0DB
:104930001D4B012D9B5C1DD017D3022DD2D12278A7
:1049400053402370F0BD13441BB20022A1E7022D97
:1049500025D11EF8016077400EF80170CCE71EF8F3
:10496000016037430EF80170C6E7227822EA03039C
:104970002370F0BD227813432370F0BD11462378D5
:10498000DB4323700839B0F90630C9B207291C444B
:10499000F5D812F00702A5D0034B9B5CCFE7344457
:1049A000AFE700BFB8C30000A8C3000070B4C47D67
:1049B000BDF80C50022C18D0032C1FD0012C0BD0AA
:1049C000002A03DBB0F90840944201DC70BC704758
:1049D000039570BCFFF72ABBC4880395013CA41A59
:1049E0000A4621B270BCFFF749BF0689C488013E60
:1049F000641AB21AE41A12B221B2E1E704890395EB
:104A0000E41A641A114622B270BCFFF737BF00BF28
:104A100070B4C57DBDF80C60022D1AD0032D12D0E4
:104A2000012D03D0039670BCFFF728BFC488E41A99
:104A3000A41A0A4621B2002A03DBB0F908409442C6
:104A400013DC70BC70470489013C641A114622B221
:104A5000F1E7C48805890396013CAD1AED1A621A84
:104A600011B22AB270BCFFF709BF039670BCFFF702
:104A7000DDBA00BF2DE9F8430446406A002863D040
:104A80007649FEF715FC052275492046FFF788FC9C
:104A9000A1790139C9B22046FFF7B8FBB4F9082063
:104AA000E588A66AD31D48BF02F10E03DB10626AD7
:104AB00015FB03F51FFA85F8002A7BD094F82C30FB
:104AC0000125AB4082F83B3082F85E5082F85D50A1
:104AD000606A036840211B6808F1FF379847BFB23E
:104AE000B8F1000F23D03744A846013E606A16F89B
:104AF000011F03681B6898470135B742EDB216D015
:104B0000202DF3D10121606AFEF732FD94F82C20AC
:104B1000636A520083F83B2083F85E8083F85D80EF
:104B2000606A036840211B6898470125DEE7012180
:104B3000606AFEF71DFD606A002800F08D80A16D9F
:104B4000BDE8F843FEF7B4BB236A002B2BD0D97A1B
:104B5000626DE1B172B6D97ACE0706D54148D968FF
:104B60000568294099610160D97A8D0706D53E48CC
:104B7000196905682940D9610160D97A480705D5C6
:104B80003A485969056829401962016062B61B6894
:104B9000D968914207D0364818603649DA6042F049
:104BA000804018611960226C216D136823EA0103AB
:104BB000136068E7E26BE36C1168276A0B4306EB4E
:104BC000080913604FF0004E4E450DD016F801CB8A
:104BD0002FB33A68C2F82CE0C2F834C0D36A002B75
:104BE000FCDA4E45936BF1D1226C236D11680B43B7
:104BF000136097B1FB7A83B1D90703D51E4BBA690D
:104C00001A60FB7A9A0703D51C4BFA691A60FB7A83
:104C10005B0702D51A4B3A6A1A60BDE8F883A36BAA
:104C2000D4F8348008208021D8F80020656C1CEA74
:104C3000010F14BF2A43AA43C8F800201A68A56CC4
:104C40002A431A601A68A56C013822EA05024FEA65
:104C500051011A60E8D1B7E7276AC5E740420F0063
:104C6000B0C3000080E100E084E100E088E100E002
:104C700001403F0000003F8000E100E004E100E06F
:104C800008E100E010B5044601F038FA204610BDF6
:104C9000024A0349034805F0BBBF00BF1C97FF1F32
:104CA000854C0000ECABFF1F38B5074D074C08489A
:104CB0002A46214605F0ACFF2A4621460548BDE8B4
:104CC000384005F0A5BF00BF1C97FF1F854C0000B2
:104CD000F4ABFF1FFCABFF1F024A0349034805F07A
:104CE00097BF00BF1C97FF1F854C000004ACFF1F3F
:104CF000024A0349034805F08BBF00BF1C97FF1F02
:104D0000854C00000CACFF1F024A0349034805F024
:104D10007FBF00BF1C97FF1F854C000014ACFF1F16
:104D2000024A0349034805F073BF00BF1C97FF1FE9
:104D3000854C00001CACFF1F024A0349034805F0E4
:104D400067BF00BF1C97FF1F854C000024ACFF1FEE
:104D500010B5002101F096F870B172B60A4B1A68CE
:104D600072B10A490C6844B11C60086062B6104612
:104D7000BDE8104001F042B810BD086062B610BD39
:104D8000186062B610BD00BF3CACFF1F2CACFF1F0B
:104D900038B5184B18491A68184C12681B79184D09
:104DA0000B70A242286836BF2246A4F5807202F535
:104DB0008074C0B1011D31F9023B03F500431B11A2
:104DC00022F8023B9442F6D801F018F80D4B00226D
:104DD000196829601A600C4B1B781BB10B4B4FF004
:104DE00080421A6038BD4FF4006322F8023B9442BF
:104DF000FBD8F0E730ACFF1F1F800040288DFF1F5D
:104E00003CACFF1F2CACFF1F38ACFF1F08E200E0DA
:104E1000F8B501214248434E01F00CF9424A43499A
:104E20001368802043F4805313600024087040F618
:104E3000080534800120083402F00AFAA3B2AB421C
:104E40001CB2F6D13A4B1B685B0208D5394B1A6885
:104E500048F6A273134048F6A27293424FD03449E9
:104E6000344A0B68344F354D3548364C43F4800393
:104E70000B604FF0010E40F22F3648F6A37140F25E
:104E80000113C7F800E02E60116014600360244C29
:104E90002D4A236823491A6002259D8022791961D1
:104EA00002F1804202F50432284EDE6040F2011128
:104EB000D9804FF4807000210627B026D8829D60EB
:104EC000D88399829F8399611170167001F058F808
:104ED00022791F4B1F4E187053119B0003F1604342
:104EE0001D4C327003F5614302F1100002F01F0700
:104EF00001211A4D44F82050B9401960F8BD0F4BFC
:104F00001A6840F22F339A42A9D10B4B1B68012B30
:104F1000A5D10B4B1A6840F201139A429FD1B6E714
:104F200030ACFF1F00C00C402C80044021C00C405E
:104F30003C800440006003400C6003400460034078
:104F400010600340A28F0100288CFF1F00FEFFFFAE
:104F500038ACFF1F1B8000400090FF1F914D0000E8
:104F6000024A0349034805F053BE00BF1C97FF1FC8
:104F7000854C000030ACFF1F024A0349034805F08E
:104F800047BE00BF1C97FF1F854C000040ACFF1FB1
:104F9000024A0349034805F03BBE00BF1C97FF1FB0
:104FA000854C000048ACFF1F024A0349034805F046
:104FB0002FBE00BF1C97FF1F854C000050ACFF1F89
:104FC000024A0349034805F023BE00BF1C97FF1F98
:104FD000854C000058ACFF1F024A0349034805F006
:104FE00017BE00BF1C97FF1F854C000060ACFF1F61
:104FF000024A0349034805F00BBE00BF1C97FF1F80
:10500000854C000068ACFF1F2DE9F04F83B00646C9
:1050100000F0A0FE0190002800F0848000F5827965
:10502000031DB6F92E100091994565D9871DDFF84B
:10503000FCE008E04FF0000327F8023C3B469945AE
:1050400007F1020758D9F3694FF6FE729342F1DD7A
:10505000326A9B1AF36113FB33F3716B306B4910A7
:1050600033FB01F18913C20032FB01F1726A024481
:105070000A4422F000424FEAD25CC2F3CF147262BB
:10508000009A322A0CF1010A42DDB26A3EF91C5044
:105090003EF91AC0024402EB5000084400EB6101E3
:1050A00021F00041CA0D02F101083EF912003EF95B
:1050B0001820B162121AC1F3CF1101FB02F2C5EB45
:1050C0000C0CB6F92E10B6F92C8004FB0CFC00EB8E
:1050D000224205EB2C4C01FB02F208FB0CFCD21324
:1050E00002EBEC3833FB08F3DB1327F8023C3B46BA
:1050F000994507F10207A6D8019C304600222146B7
:1051000000F0A6FE204603B0BDE8F04F00F076BEEA
:105110003EF91C203EF91A10891A04FB01F802EB33
:105120002848DFE703B0BDE8F08F00BFD8C8000013
:1051300072B6034BC36100234362836262B6704759
:105140000000FF7F38B50D4604460021284605F0D3
:1051500011FD70B94FF07E51284605F029FD60B170
:105160004FF4804343F6FF7072B6E085A38562B6C4
:1051700038BD47F6FF730020F6E70649284605F0DC
:105180005BFB05F01FFD00B2C0F5FF437F331BB290
:10519000EAE700BF00FC7F4638B50D460446002113
:1051A000284605F0E7FC48B94FF07E51284605F047
:1051B000FFFC30B14BF6FD73636338BD0D4B636389
:1051C00038BD0D49284605F037FB05F0FBFCB0F56E
:1051D000804F08DAC0F5804000EB400040F39103B7
:1051E0005B42636338BDA0F5804000EB400040F3B4
:1051F0001103E1E700D0FFFF00FEFF46064B074A20
:10520000DA620221002259609A7083F8242083F820
:10521000302083F83220704770ACFF1FFCCA0000BA
:1052200010B50121007801F0F9FF0E4A137893B10F
:105230000D49CB7A00241846147063B1DC0703D5FE
:105240000A4A8869106018469A0705D4430702D5B0
:10525000074B0A6A1A6010BD064BCA69C87A1A6001
:10526000F4E700BFC8ACFF1F4897FF1F00E100E054
:1052700008E100E004E100E01E4B1A781AB1007862
:10528000002101F0CBBF70B41B4A1C49D47A0968D5
:1052900001251D70ECB172B6D37ADE071C4606D527
:1052A000174DD4682E68344094612C601C469D07CD
:1052B00006D5144D13692E68D47A3340D3612B6020
:1052C000630705D5104C536925682B401362236092
:1052D00062B61368DA688A4207D00C4C1C600C4A2C
:1052E000D96041F080441C611A600078002170BCD4
:1052F00001F094BFC8ACFF1F4897FF1FC4ACFF1F4D
:1053000080E100E084E100E088E100E001403F004E
:1053100000003F80F0B41248124A036882B016467B
:105320000093009F4FF00045FF24136843F480630F
:105330001360D5625463D36A002BFCDAB36BDBB223
:10534000FF2B09D003680193019BDB1B8B42ECD33D
:10535000002002B0F0BC7047012002B0F0BC7047E2
:10536000B8AFFF1F00C00240F8B50D464FF496716C
:1053700016460446FFF7CEFF284B1A684FF0004050
:1053800042F4806245F040011A60D8621A465963BF
:10539000D36A002BFCDA214918204FF000470A6835
:1053A00026FA00F342F48062DBB20A60CF624B63FC
:1053B000CB6A002BFCDA083810F1080FEFD155B397
:1053C000082D0CBF8721FF21144B1A684FF00040B5
:1053D00042F480621A60D8621A465963D36A002B7D
:1053E000FCDA0E4A002716464FF00045FF211368ED
:1053F00043F480631360D5625163D36A002BFCDAF7
:10540000B36BD8B21B06607000D4F8BD0137B7F596
:10541000807FECD1F8BD9521D6E700BF00C00240E7
:10542000F0B41549154A0B6882B016460093009FE8
:105430004FF00045FF24136843F480631360D56286
:105440005463D36A002BFCDAB36BDBB2FF2B4370DF
:105450000AD10B680193019BDB1BB3F5967FEAD958
:10546000002002B0F0BC7047A3F1FE00B0FA80F05B
:10547000400902B0F0BC7047B8AFFF1F00C0024047
:10548000F8B58378032B0E46044618BF4E02154626
:10549000FFF7F2FE324611212046FFF765FF18B9EB
:1054A0002046FFF7BDFF20B92046FFF7B9FE0020D8
:1054B000F8BD204B2049214A1A608E4659631A468E
:1054C00059631E46596305F5FD70A91C05F5FE7765
:1054D000D36A13F0F00FFBD0C6F834E0B36B01F8D9
:1054E000013C1B1201F8023C02318F42F0D105F55C
:1054F0000075A8420DD20F4A1646D36A13F0F00F7A
:10550000FBD0B36B191200F8021BA84200F8013C53
:10551000F3D3084B0949084A196019465A63CB6A04
:10552000044A13F0F00FFAD02046936BFFF778FE91
:105530000120F8BD00C00240FFFF009000041F8062
:10554000F0B4314E33684FF0004743F4806333606A
:105550003D46F762344671633346511C02F201271F
:10556000E26A002AFCDA1A6811F8016C42F48062DF
:105570001A60DD625E63E26A002AFCDA1A6811F8DA
:10558000026B42F480628F421A60DD625E63E7D193
:105590001D49CA6A1C4B002AFBDA1A684FF0004505
:1055A00042F48062FF241A601946DD625C63CB6AB4
:1055B000154A002BFBDA13684FF0004543F4806373
:1055C000FF2413601146D5625463CB6A0E4A002B48
:1055D000FBDA13684FF0004543F48063FF24136047
:1055E0001146D5625463CB6A074A002BFBDA936BF2
:1055F000DBB203F01F024370A2F10500B0FA80F0A5
:105600004009F0BC704700BF00C0024070B50446BE
:1056100071B18378032B0D4618BF4D021646FFF774
:105620002BFE2A4618212046FFF79EFE054620B194
:105630002046FFF7F5FD002070BD3246FE212046D2
:10564000FFF77EFF0028F3D04FF416712046FFF7D6
:1056500061FE0028ECD02A460D212046FFF784FE8B
:105660000028E5D10B4B1A684FF0004542F48062E8
:10567000FF201A601946DD625863CB6A054A002B89
:10568000FBDA936B13F0FF0FD2D12046FFF7C8FD72
:10569000012070BD00C00240014B024A1A607047F1
:1056A000C4ACFF1F0000023838B590F90530002B5C
:1056B00003DBBDE8384000F06DB904460121006904
:1056C00000F092F9F8B1257D104B13EB45151AD077
:1056D000A3790F4A012B9CBFA369EB61E3691268B0
:1056E0006B831B0CAB8232B105F1160105F118007A
:1056F00090472B8B6B82637903F07F036371BDE866
:10570000384000F047B9002038BD00BFD8ACFF1FBB
:10571000CCACFF1F10B500F1080204460121006A5D
:1057200000F000FA50B1E3693BB96379A268E26125
:1057300063F07F036371012010BD012010BD00BF25
:10574000F8B5837913B182698A4201D20020F8BD8D
:10575000022B0F4605461AD007B32B6AE9681C7C5A
:105760004A1E04F109037C1EDA40DC40A24211D932
:10577000EB69AB6005F1080606E0A968286A00F04D
:1057800099F9013C0028E1D03246002CF5D1EF60B8
:105790000120F8BD0029EBD0A41AEBE7AF60EF6061
:1057A0000120F8BD2DE9F04F8B46817985B00129A4
:1057B0000746019205D001233B71002005B0BDE8EA
:1057C000F08F42799107F6D5530708D5FC68B9697F
:1057D0008C4200F0A880FFF7B3FF0028EBD0019BBC
:1057E000FC68002B49D0DFF88C91DFF88CA1DDF844
:1057F0000480386A0679013E06EA542616F0FF0650
:10580000C4F3080442D1002C40D1B96800296FD1FB
:10581000FA69002A7ED0BA60C4F50075ADB245457C
:105820003AD9057C4169023AAA400E4416441FFA4F
:1058300088F51CB9F868BA6990424CD2304601210B
:1058400000F0D2F80028B6D04C4404EB050E7445A5
:105850000DD00BF1FF31621E0EF1FF3611F8010F72
:1058600002F8010F9642F9D1C4EB0E04A344FC6880
:10587000B8EB05082C44FC60BBD1BB69A34257D2EE
:105880007A79BC6142F080027A715AE0C4F5007501
:10589000ADB24545BA68C4D8017C4069023A8A4035
:1058A0000644B5F5007F1644C3D1DAF800209642CD
:1058B00004BF4FF0FF32CAF800202A4A3146106870
:1058C0005A46FFF7A3FE00283FF475AF0BF5007BA7
:1058D0004FF40075CBE700F05DF800283FF46BAFA4
:1058E0002149CAF800600A7842F001020A70ABE769
:1058F00003AA00F0DFF800283FF460AF386A1B4BC2
:1059000090F82050039A4FF6F871102D18BF1946E1
:105910008A4280D33846FFF7FDFE00283FF44BAFA4
:10592000386ABA6878E7019B002B7FF45CAF08E027
:105930000F4B7A791B6823B1019B13B142F08002AF
:105940007A71120709D5BB79002B3FF434AF384682
:10595000FFF7AAFE00283FF42EAF019805B0BDE87E
:10596000F08F00BFD4ACFF1FD8AEFF1FF8FFFF0FB2
:10597000CCACFF1FD8ACFF1F5898FF1F00B583B0F9
:1059800002AB012203F8011D1946FFF70BFF03B01C
:105990005DF804FB70B50F4C23780BB9012070BD86
:1059A0000D4B0E4D196828680D4AFFF72FFE70B198
:1059B0000C4E316819B900232370012070BD28688E
:1059C000074AFFF723FE10B100233360F3E70020FE
:1059D00070BD00BFD8AEFF1F5898FF1FD4ACFF1F8B
:1059E000D8ACFF1FD0ACFF1F70B50D4D2B688342A4
:1059F0000E460ED00446FFF7CDFF08B9002070BD5B
:105A0000084B094A18682146FFF73AFD0028F5D0EF
:105A10002C60064B197831431970012070BD00BF0E
:105A20005898FF1FD4ACFF1FD8ACFF1FD8AEFF1F84
:105A3000F8B590F82030C469102B1A4B05460E4675
:105A400017461B6816D004EBD1149C4216D106F001
:105A50007F06154A42F826701449287E0A780128E4
:105A600042F001020A7018D9A968114A0B44136068
:105A70000120F8BD04EB11249C4208D000212046EF
:105A8000FFF7B2FF50B195F82030102B07D1F6B2D6
:105A9000054A234622F81670DEE70120F8BD2346AA
:105AA000D5E700BF5898FF1FD8ACFF1FD8AEFF1F27
:105AB000D0ACFF1FC36801338B4218D370B590F888
:105AC0002030102B154B044616460D46C0691B6846
:105AD0000FD000EBD11098420FD105F07F01104B91
